:020000040800F2
:1000000068070020311C0008511D0008531D00081E
:10001000571D00085B1D00085F1D00080000000060
:10002000000000000000000000000000631D000848
:10003000651D000800000000671D0008691D00081C
:100040004B1C00084B1C00084B1C000867200008D4
:100050004B1C00084B1C00084B1C00084B1C0008E4
:100060004B1C00084B1C00084B1C00084B1C0008D4
:100070004B1C00084B1C00084B1C00084B1C0008C4
:100080004B1C00084B1C00084B1C00084B1C0008B4
:100090004B1C00084B1C00084B1C00084B1C0008A4
:1000A0004B1C00084B1C00084B1C00084B1C000894
:1000B0004B1C00084B1C00084B1C00084B1C000884
:1000C0004B1C00084B1C00084B1C00084B1C000874
:1000D0004B1C0008431F00084B1C00084B1C000869
:1000E0004B1C00087B2000084B1C000800F002F8A5
:1000F00000F090F80AA090E8000C82448344AAF132
:100100000107DA4501D100F085F8AFF2090EBAE82F
:100110000F0013F0010F18BFFB1A43F0010318473B
:100120007845000098450000103A24BF78C878C18F
:10013000FAD8520724BF30C830C144BF04680C60ED
:10014000704700000023002400250026103A28BF35
:1001500078C1FBD8520728BF30C148BF0B60704739
:100160006E2902F07D85702902F0F686662903F07B
:100170001987652903F01687672903F0138761291A
:10018000AFF3008003681B0A28BF41F08001692992
:1001900002F02A85642902F02785752902F024855A
:1001A0006F2902F08186782902F0C286E92902F0DF
:1001B0001986E42902F01686F52902F01386EF2944
:1001C00002F07E86F82902F0C1860368DB0928BFA9
:1001D00041F08001632902F08885732902F08D8542
:1001E000E32903F08081F32903F085810020704723
:1001F0001FB503F0D5F904000020002103F0BCFE78
:10020000401C60600020002103F0A0FEE0601FBDE4
:1002100010B510BD03F097F91146FFF7E9FF01F0A3
:1002200027FD03F073FA03B4FFF7F2FF03BC01F0FC
:1002300005FE000000210020674A126842F4803267
:10024000654B1A6000BF644A126802F40030491C12
:1002500010B9B1F5A06FF6D15F4A126812F4003FF1
:1002600001D0012000E00020012842D15B4A126841
:1002700042F01002594B1A601A46126822F003022B
:100280001A601A46126842F002021A60524A526814
:10029000514B5A601A4652685A601A46526842F4E4
:1002A00080625A601A46526822F47C125A601A46DA
:1002B000526842F4E8125A601A46126842F080729C
:1002C0001A6000BF444A126812F0007FFAD0424A16
:1002D000526822F00302404B5A601A46526842F0BC
:1002E00002025A6000BF3C4A526802F00C02082A1F
:1002F000F9D1704710B5FFF79DFF10BD10B5364816
:10030000006840F0010034490860084640683449FC
:1003100008403149486008460068324908402E4983
:1003200008600846006820F480200860084640689D
:1003300020F4FE0048604FF41F008860FFF7DAFFEA
:100340004FF000602849086010BD10B50021002062
:100350000022214B5B6803F00C0121B1042906D077
:10036000082928D107E0214B214C236027E01F4BAF
:100370001F4C236023E0184B5B6803F47010164B8E
:100380005B6803F48032022303EB904022B9194BDF
:100390004343174C23600DE00F4B5B6813F4003FA1
:1003A00004D0144B4343124C236003E00F4B4343F0
:1003B0000F4C236003E00D4B0D4C236000BF00BFCA
:1003C000054B5B68C3F303130B4CE15C084B1B68E4
:1003D000CB40074C236010BD0010024000200240BB
:1003E0000000FFF8FFFFF6FE08ED00E000127A00C3
:1003F0000000002000093D000400002031490143B5
:10040000314A1160704770B5002100230F22C47873
:100410000CB32D4C246804F4E064C4F5E064210AB4
:10042000C1F10403CA40447804FA03F1847814400B
:1004300021430901254C0678A155047804F01F05D5
:100440000124AC4005786D114FF0E02606EB8505E0
:10045000C5F8004109E0047804F01F050124AC4010
:100460001B4D0678761145F8264070BD194A0A40A2
:100470000243154B1B1F1A60704739B1124A121DF7
:1004800012680243104B1B1D1A6006E00E4A121D33
:10049000126882430C4B1B1D1A607047042808D158
:1004A0004FF0E021096941F004014FF0E0221161B1
:1004B00007E04FF0E021096921F004014FF0E0224C
:1004C000116170470000FA050CED00E000E400E067
:1004D00080E100E080FFFF1F10B50446CA48844257
:1004E00008D10121042000F023FB0021042000F0AA
:1004F0001FFB46E0C548844208D10121082000F0D6
:1005000017FB0021082000F013FB3AE0C0488442AA
:1005100008D10121102000F00BFB0021102000F079
:1005200007FB2EE0BB48844208D10121202000F0C7
:10053000FFFA0021202000F0FBFA22E0B6488442B6
:1005400008D10121402000F0F3FA0021402000F002
:10055000EFFA16E0B148844208D10121802000F072
:10056000E7FA0021802000F0E3FA0AE0AC48844278
:1005700007D10121801500F0DBFA0021A01500F061
:10058000D7FA10BD10B50121084600F0D1FA0021BC
:10059000012000F0CDFA10BD2DE9F0410246002502
:1005A0000026002000230024002791F803C00CF04F
:1005B0000F0591F803C01CF0100F03D091F802C092
:1005C0004CEA050591F800C0BCF1000F31D0146869
:1005D00000202BE04FF0010C0CFA00F3B1F800C042
:1005E0000CEA03069E4220D183004FF00F0C0CFA58
:1005F00003F7BC4305FA03FC4CEA040491F803C07A
:10060000BCF1280F06D14FF0010C0CFA00FCC2F827
:1006100014C00AE091F803C0BCF1480F05D14FF0B7
:10062000010C0CFA00FCC2F810C0401C0828D1D301
:100630001460B1F800C0BCF1FF0F34DD5468002035
:100640002EE000F1080C4FF0010808FA0CF3B1F8A5
:1006500000C00CEA03069E4221D183004FF00F0C2C
:100660000CFA03F7BC4305FA03FC4CEA040491F8C6
:1006700003C0BCF1280F05D100F1080C08FA0CF8F2
:10068000C2F8148091F803C0BCF1480F07D100F103
:10069000080C4FF0010808FA0CF8C2F81080401C52
:1006A0000828CED35460BDE8F0814FF6FF71018079
:1006B000022181700421C1707047024600209368B6
:1006C0000B4201D0012000E00020704701468868FD
:1006D00080B2704702460020D3680B4201D001204F
:1006E00000E0002070470146C86880B27047016191
:1006F0007047416170470AB1016100E04161704794
:10070000C16070474FF480320A4382618161826127
:1007100082698269704702460020424B18684FF692
:100720008073184040EA021008433E4B186070473F
:100730003D49C8617047F0B50A46002300240021F6
:10074000002500F00046B6F1004F02D1354EF169A8
:1007500001E0344E7168C0F3034583B200F44016E3
:10076000B6F5401F08D121F070612E4E766826F054
:1007700070662C4F7E6012E000F48016B6F5801F84
:1007800006D1032606FA05F4A14341F0706106E0A4
:10079000460D360103FA06F6B14341F0706122B10D
:1007A000460D360103FA06F6314300F00046B6F175
:1007B000004F02D11B4EF16101E01A4E7160F0BD95
:1007C00030B500228B071C0F0F2303FA04F2154BE0
:1007D00008338C1053F824309343124C08348D1096
:1007E00044F8253023468C1053F824308C07240F0E
:1007F00000FA04F423430B4C08348D1044F82530E0
:1008000030BD0A490860704700080140000C0140F3
:10081000001001400014014000180140001C01407C
:10082000002001400000014000002042DC00204286
:10083000DB48006840F00100D9490860084640687C
:10084000D8490840D649486008460068D64908405B
:10085000D34908600846006820F4802008600846F4
:10086000406820F4FE0048604FF41F008860704725
:10087000CB49096821F48031C94A116011460968E1
:1008800021F480211160B0F5803F03D0B0F5802FB6
:100890000ED106E0C249096841F48031C04A1160B6
:1008A00007E0BF49096841F4A021BD4A116000E09A
:1008B00000BF00BF704710B5014600220023002092
:1008C0004A11012A02D1B64C236806E0022A02D15D
:1008D000B34C236A01E0B24C636A01F01F020124A9
:1008E00094401C4201D0012000E0002010BD70B5F2
:1008F00000240025002600BF3120FFF7DCFF06465C
:10090000641CB4F5A06F01D0002EF5D03120FFF7A4
:10091000D2FF08B1012500E00025284670BD014640
:1009200000209F4A106820F0F80040EAC1001060E3
:1009300070479E490860704702460020984B5868EF
:1009400020F47C1042EA01031843954B586070472D
:1009500096490866704701460020914A506820F089
:1009600003000843506070478D48406800F00C0059
:100970007047014600208A4A506820F0F000084382
:100980005060704701460020854A506820F4E060BE
:1009900008435060704701460020814A506820F4A7
:1009A000605040EAC1005060704729B17C4A527AD9
:1009B00002437B4B5A7204E0794A527A8243784B65
:1009C0005A7270477A490860704701460020744A9D
:1009D000506820F440400843506070470021754A39
:1009E00011706F4A82F82010012802D0042808D123
:1009F00003E001216F4A117004E005216D4A117076
:100A000000E000BF00BF70476B4908607047644951
:100A1000096A0143624A11627047674944390860B4
:100A2000704730B500210022002400235C4D6D6822
:100A300005F00C0121B1042905D0082923D105E0D6
:100A40005E4D056022E05D4D05601FE0544D6D6810
:100A500005F47012524D6D6805F48034022505EBE3
:100A600092421CB9564D554305600BE04C4D6D68E4
:100A700015F4003F03D0524D5543056002E04F4D41
:100A80005543056002E04D4D056000BF00BF444D79
:100A90006D6805F0F00109094A4D6B5C0568DD40A1
:100AA00045603F4D6D6805F4E061090A454D6B5C9A
:100AB0004568DD4085603A4D6D6805F46051C90AAE
:100AC000404D6B5C4568DD40C560354D6D6805F493
:100AD0004041890B3C4D6B5CC568B5FBF3F5056186
:100AE00030BD29B12E4A526902432D4B5A6104E0B0
:100AF0002B4A526982432A4B5A61704729B1284ACE
:100B000092690243264B9A6104E0254A9269824326
:100B1000234B9A61704729B1214AD2690243204B85
:100B2000DA6104E01E4AD26982431D4BDA617047E4
:100B300029B11B4AD2680243194BDA6004E0184A13
:100B4000D2688243164BDA60704729B1144A1269A1
:100B50000243134B1A6104E0114A12698243104B9D
:100B60001A61704714494039086070470F49C864DA
:100B700070470B49C87170470948406A40F080705F
:100B800007494862704701460020054A92680A42B8
:100B900001D0012000E000207047014988727047B1
:100BA000001002400000FFF8FFFFF6FE0000424286
:100BB000D8004242201002408004424200127A00D3
:100BC00000093D00140000202400002010B5044658
:100BD000FB48844209D101218803FFF7A9FF0021C6
:100BE0004FF48040FFF7A4FF32E0F648844209D179
:100BF00001214804FFF7A9FF00214FF40030FFF75F
:100C0000A4FF25E0F048844209D101218804FFF7C0
:100C10009CFF00214FF48020FFF797FF18E0EB487E
:100C2000844209D10121C804FFF78FFF00214FF44E
:100C30000020FFF78AFF0BE0E548844208D101213C
:100C40000805FFF782FF00214FF48010FFF77DFFBA
:100C500010BD2DE9F04786B005460E460024A24699
:100C600000BFA1460027B08900B100BF2F462C8AE3
:100C70004CF6FF700440F08804432C82AC894EF699
:100C8000F3100440B0883189084371890843044354
:100C9000AC81AC8A4FF6FF400440B0890443AC827B
:100CA00001A8FFF7BEFEC648874202D1DDF810A0BA
:100CB00001E0DDF80CA0A88910F4004F08D00AEB81
:100CC000CA0000EB0A1031684900B0FBF1F807E0F8
:100CD0000AEBCA0000EB0A1031688900B0FBF1F89A
:100CE0006420B8FBF0F004012009642101FB1089A5
:100CF000A88910F4004F08D0322000EBC900B0FBE7
:100D0000F1F000F00700044308E0322000EB091086
:100D10006421B0FBF1F000F00F0004432C8106B019
:100D2000BDE8F0874FF41651016000218180C18039
:100D300001810C21418100218181704710B502465B
:100D40000020108A4FF2FF0318400B884C88234381
:100D50008C882343CC8823431843108210BD002184
:100D6000018041808180C180704721B1828942F435
:100D70000052828104E082894DF6FF731A4082811D
:100D80007047F0B503460024002600250020A1F599
:100D900010676A3F00D100BF1846C1F3421401F04A
:100DA0001F06012707FA06F5012C01D10C3004E0DB
:100DB000022C01D1103000E014301AB107682F4323
:100DC000076002E00768AF430760F0BD1AB1838A8D
:100DD0000B43838202E0838A8B4383827047028ABB
:100DE0004FF6F0731A400282028A0A430282704769
:100DF00082894FF2FF731A40828182890A4382817D
:100E0000704721B1828942F00202828104E0828926
:100E10004FF6FD731A4082817047028A4FF6DF73E6
:100E20001A400282028A0A430282704721B1028A72
:100E300042F48042028204E0028A4BF6FF731A40B9
:100E400002827047C1F30802828070470146888899
:100E5000C0F308007047818941F00101818170472A
:100E6000028BD2B20283028B42EA012202837047D4
:100E7000028B02F47F420283028B0A430283704793
:100E800021B1828A42F02002828204E0828A4FF6F7
:100E9000DF731A408282704721B1828A42F01002C9
:100EA000828204E0828A4FF6EF731A408282704792
:100EB00021B1828A42F00802828204E0828A4FF6DF
:100EC000F7731A408282704721B1828942F400424E
:100ED000828103E08289C2F30E028281704721B1D0
:100EE000828A42F40062828204E0828A4FF2FF73B7
:100EF0001A4082827047828A4FF6FB731A408282C0
:100F0000828A0A438282704721B1828A42F00202B9
:100F1000828204E0828A4FF6FD731A408282704713
:100F200002460020B1F5007F00D100BF13880B42BC
:100F300001D0012000E00020704701F40072B2F5FA
:100F4000007F00D100BFCA430280704770B50246DF
:100F50000024002300250020A1F510666A3E00D180
:100F600000BFC1F3421501F01F03012606FA03F387
:100F7000012D02D19689334006E0022D02D1168A56
:100F8000334001E0968A33400C12012606FA04F43D
:100F90001688344013B10CB1012000E0002070BD70
:100FA00010B500220023A1F510646A3C00D100BFF7
:100FB0000A1201249440A3B2DC43048010BD000057
:100FC000003801400044004000480040004C004010
:100FD0000050004010B50120FFF7C4FD0020FFF7CE
:100FE000C1FD10BD2449086070472349091F0860EE
:100FF00070472149843108607047014600201F4A2C
:1010000010884FF67F42104008431C4A10807047FA
:1010100001460020194A10884FF68072104008439C
:10102000164A108070470022144A2C3A024411607C
:10103000704701460022114A2C3A0A441088704732
:101040000D489C300068C0B270470C4808300088DA
:1010500040F0010009490831088070470648A03077
:101060000068C0B2704705480830008840F00200B0
:10107000024908310880704704860D422C6C0040FC
:1010800010B501210807FFF760FD00214FF08050E7
:10109000FFF75BFD10BD29490862704727490861C9
:1010A000704701460020264A106820F0E0000843FF
:1010B0001060704723490860704710B50246002051
:1010C0001F4B186820F00300104318601E4B1B686C
:1010D00043F004031C4C2360012901D130BF00E020
:1010E00020BF194B1B6823F00403174C236010BD6D
:1010F0001348006840F00400114908600846006881
:1011000040F0020008601048006840F004000E49FA
:10111000086000BF00BF30BF704701460020084A8A
:1011200052680A4201D0012000E0002070470449C3
:10113000096841EA8001024A1160704700000E42CE
:1011400000700040A0000E4210ED00E029B14F4AAF
:10115000128802434D4B1A8004E04C4A12888243A5
:101160004A4B1A8070474948001D008840F0100023
:101170004649091D088070474448001D00884FF605
:10118000EF7108404149091D0880704700213F4820
:101190001C300188001F008841EA0040704700B5FC
:1011A0000246FFF7E0FF100C384918310880091D8E
:1011B0000A80FFF7E1FF00BD00B50246FFF7D3FF4D
:1011C000C2F30340314908310880091D0A80FFF746
:1011D000D3FF00BD00B50246FFF7C5FF100C2B4939
:1011E00020310880091D0A80FFF7C6FF00BD0020DE
:1011F0002649103109880907080B24491431098848
:101200000843704700BF2148001D008810F0200FE0
:10121000F9D070471D48001D00884FF6F77108404F
:101220001A49091D088000BF1848001D008810F0E9
:10123000080FF9D0704701460020144A121D128889
:101240000A4201D0012000E0002070470F49091D2B
:10125000098881430D4A121D118070470146002004
:101260000A4A121D12880A40D0B2084A12880A425D
:1012700002D008B1012000E0002070470349091D99
:1012800009888143014A121D1180704700280040DF
:1012900001460020FE4A106800F038000843106044
:1012A0007047FB49096821F00801F94A11601146AD
:1012B0000968014311607047F549096821F0100180
:1012C000F34A116011460968014311607047F14803
:1012D000EF494860F04848607047EE48EC49486084
:1012E000ED4848607047EA48006940F08000E849EE
:1012F00008617047E648006940F08000E4490861F1
:1013000070470420E249C96811F0010F01D00120A3
:101310000EE0DF49C96811F0040F01D0022007E098
:10132000DB49C96811F0100F01D0032000E0042050
:10133000704700B502460423FFF7E3FF034603E0CE
:10134000FFF7DFFF0346521E012B01D1002AF7D120
:1013500002B90523184600BD30B5044604254FF4F4
:101360003020FFF7E6FF0546042D17D1C848006975
:1013700040F00200C649086108464461006940F037
:10138000400008614FF43020FFF7D3FF0546C04806
:10139000006941F6FD710840BD490861284630BD2D
:1013A00010B504244FF43020FFF7C3FF0446042C8B
:1013B00016D1B748006940F00400B54908610846F5
:1013C000006940F0400008614FF43020FFF7B1FFA2
:1013D0000446AF48006941F6FB710840AC4908611A
:1013E000204610BD00B502460423FFF78AFF0346DE
:1013F00003E0FFF786FF0346521E012B01D1002AAE
:10140000F7D102B90523184600BD10B504244FF4E6
:101410003020FFF7E7FF0446042C16D19C480069F2
:1014200040F004009A4908610846006940F0400015
:1014300008614FF43020FFF7D5FF04469448006957
:1014400041F6FB71084092490861204610BD00201A
:101450008F49C96911F0020F01D0012000E000207E
:10146000704730B5A5250424FFF7F1FF00B1002532
:101470004FF43020FFF75DFF0446042C3AD1854835
:1014800083498860844888600846006940F02000ED
:1014900008610846006940F0400008614FF43020C0
:1014A000FFF747FF0446042C1BD17948006941F639
:1014B000DF710840764908610846006940F0100075
:1014C000086176480580E002FFF733FF0446052CEB
:1014D00010D06F48006941F6EF7108406C4908610F
:1014E00008E0052C06D06A48006941F6EF71084013
:1014F00067490861204630BDF0B504460D46042614
:101500000027F002FFF715FF0646042E22D160489F
:10151000006940F001005E4908612580F002FFF794
:1015200008FF0646042E0ED1A71C280C3880F002B6
:10153000FFF7FFFE06465648006941F6FE71084077
:101540005349086106E05248006941F6FE710840BF
:101550004F4908613046F0BD70B504460D4604267B
:10156000F002FFF7E6FE0646042E11D14848006956
:1015700040F00100464908612580F002FFF7D9FEDE
:1015800006464348006941F6FE710840404908613B
:10159000304670BD70B505460E460424E002FFF7E4
:1015A000C8FE0446042C17D13A48394988603A48A5
:1015B00088600846006940F0100008612E80E00253
:1015C000FFF7B7FE0446052C06D03148006941F606
:1015D000EF7108402E490861204670BD2DE9F043A7
:1015E00004464FF6FF763746B046B1460425E4433D
:1015F000E6B2C4F30727C4F307484FEA1469E802C8
:10160000FFF797FE0546042D40D122482049886007
:10161000214888600846006940F010000861FF2EEC
:1016200006D01E4808300680E802FFF782FE054615
:10163000042D08D1FF2F06D018480A300780E80291
:10164000FFF777FE0546042D0AD1B8F1FF0F07D04A
:1016500012480C30A0F80080E802FFF76AFE054649
:10166000042D0AD1B9F1FF0F07D00C480E30A0F8B5
:101670000090E802FFF75DFE0546052D06D0044800
:10168000006941F6EF71084001490861284607E00A
:101690000020024023016745AB89EFCD00F8FF1F12
:1016A000BDE8F08330B5054604244FF43020FFF741
:1016B00040FE0446042C41D15E485F4988605F4883
:1016C00088600846006940F020000861084600690B
:1016D00040F0400008614FF43020FFF72AFE044636
:1016E000042C22D15448006941F6DF710840524968
:1016F00008610846006940F0100008611DB1002033
:101700004F49088002E0A5204D4908804FF4302061
:10171000FFF70FFE0446052C10D04748006941F63C
:10172000EF7108404449086108E0052C06D04248A2
:10173000006941F6DF7108403F490861204630BD2D
:10174000F0B505460E46174604243A483A498860E3
:101750003A488860E002FFF7ECFD0446042C19D1FA
:101760003548006940F010003349086147F0F8003F
:10177000304328433249891C0880E002FFF7D9FD35
:101780000446052C06D02C48006941F6EF7108404C
:10179000294908612046F0BD2748C0698008704784
:1017A0002548006A704700202349096811F0200F7E
:1017B00001D0012000E00020704729B11E4A1269C3
:1017C00002431D4B1A6104E01B4A126982431A4B03
:1017D0001A61704701460020012908D1164AD269D2
:1017E00012F0010F01D0012008E0002006E0124AAB
:1017F000D2680A4201D0012000E0002070470E4963
:10180000C860704704200C49C96811F0010F01D06D
:1018100001200EE00849C96811F0040F01D0022030
:1018200007E00549C96811F0100F01D0032000E05E
:10183000042070472301674500200240AB89EFCDAB
:1018400000F8FF1F10B50446F548844209D1012174
:101850004805FFF77AF900214FF40010FFF775F9FA
:1018600008E001218805FFF770F900214FF480009E
:10187000FFF76BF910BD2DE9F04385B004460D4626
:101880000026B1460427DFF89C83A6884FF6C07077
:1018900006406846FFF7C5F8DDF80880E248B8FB67
:1018A000F0F01FFA80F946EA0906A68020884FF674
:1018B000FE71084020800026DC49286888420CD848
:1018C00028684000B8FBF0F087B2042F00DA042744
:1018D0003E4309F10100208427E0E888A0F53F415C
:1018E000FF3906D1286800EB4000B8FBF0F087B262
:1018F00009E0286800EBC00101EB0010B8FBF0F034
:1019000087B247F480473805000D01D147F0010741
:1019100047F4004006434FF4967009FB00F04FF483
:101920007A7190FBF1F0401C2084A683208840F05F
:101930000100208026884FF6F5300640A888698986
:10194000084306432680A88929890843208105B0D9
:10195000BDE8F08341F288310160002181804BF6BF
:10196000FF71C1800021018141814FF4804181815B
:10197000704721B1028842F00102028004E002882F
:101980004FF6FE731A400280704721B1828842F4FC
:101990000062828004E082884FF2FF731A408280E6
:1019A000704721B1828842F48052828004E08288AC
:1019B0004EF6FF731A408280704721B1028842F4CC
:1019C0008072028004E002884FF6FF631A400280B2
:1019D000704721B1028842F40072028004E002885C
:1019E0004FF6FF531A400280704721B1028842F43B
:1019F0008062028004E002884FF6FF331A400280C2
:101A000070470A46002181894FF60173194002F0A0
:101A1000FE0319438181704721B1828942F001029E
:101A2000828104E082894FF6FE731A4082817047FA
:101A300021B1028842F04002028004E002884FF6A1
:101A4000BF731A40028070471AB183880B438380AA
:101A500002E083888B438380704701827047014690
:101A6000088AC0B2704712B141F0010102E04FF69E
:101A7000FE731940018270470246002313460B444F
:101A80001888704721B1028842F40042028003E0C6
:101A90000288C2F30E0202807047B1F5006F04D1D4
:101AA000028842F40062028004E002884FF2FF7371
:101AB0001A4002807047B1F5005F04D1028842F4F9
:101AC0000052028004E002884DF6FF731A40028043
:101AD000704721B1028842F48052028004E00288FB
:101AE0004EF6FF731A4002807047B1F5006F04D1C3
:101AF000028842F40062028004E002884FF2FF7321
:101B00001A400280704721B1028842F02002028010
:101B100004E002884FF6DF731A40028070470146E6
:101B2000088B0012704721B1028842F01002028037
:101B300004E002884FF6EF731A400280704721B923
:101B4000028842F08002028004E002884FF67F7330
:101B50001A4002807047B1F5804F05D0828B4BF65A
:101B6000FF731A40828303E0828B42F480428283B7
:101B7000704770B502460024002500230020958A96
:101B8000138B1B0445EA030626F07F4404EA010692
:101B90008E4201D1012000E0002070BD10B5014649
:101BA0000020002300228B8A0A8B120443EA0204DD
:101BB00024F07F4010BD30B50346002000240022F1
:101BC0001A460C0F21F07F410CB1143201E0090CD0
:101BD000183215680D4201D0012000E0002030BD10
:101BE000002221F07F42D3438382704730B5024602
:101BF00000200023948801F0E06504EA154321F0F9
:101C00007F41948A0C4202D00BB1012000E00020F9
:101C100030BD002221F07F42D34383827047000011
:101C20000054004000127A0040420F00A0860100DC
:101C30000948804709480047FEE7FEE7FEE7FEE760
:101C4000FEE7FEE7FEE7FEE7FEE7FEE7044805499C
:101C5000054A064B70470000FD020008ED00000831
:101C60006801002068070020680300206803002046
:101C700008B5642000F08FF800F0ADF800F063FBC9
:101C8000684600F0A1FC00F03BFD2BA1002000F015
:101C9000B9FD2DA1062000F0B5FD4BE0684600F02F
:101CA00093FC9DF8000020B12D223821062000F081
:101CB00040FD9DF801000A2190FBF1F0303084B224
:101CC00022464021062000F034FD9DF801000A2143
:101CD00090FBF1F201FB1200303084B22246482121
:101CE000062000F026FD2E225021062000F021FDC6
:101CF0009DF802000A2190FBF1F0303084B22246B8
:101D00005821062000F015FD9DF802000A2190FBE5
:101D1000F1F201FB1200303084B22246602106202D
:101D200000F007FD43226821062000F002FDC820D4
:101D300000F031F8B2E70000202020596F756E677F
:101D400054616C6B20000000202054656D703A00D7
:101D5000704700BFFEE700BFFEE700BFFEE700BF21
:101D6000FEE7704770477047704700EBC001C9003D
:101D70004FF0E0225161002191610521116100BF06
:101D80004FF0E021096911F4803FF9D004214FF0B0
:101D9000E0221161704700B5034603E04FF47A700A
:101DA000FFF7E3FF1800A3F101018BB2F6D100BDEC
:101DB00010B5044603E04FF47A70FFF7ECFF200003
:101DC000A4F101018CB2F6D110BD10B54FF4A060A2
:101DD000FEF714FB10BD10B5FEF72AFD4FF480305E
:101DE000FEF746FDFEF783FD0446012C24D14FF497
:101DF000E0110004FEF7A0FD0020FEF7BAFDA002EE
:101E0000FEF7C0FD0020FEF7C6FD0220FFF740FAF6
:101E10001020FFF751FA0120FEF79AFD00BF39208C
:101E2000FEF749FD0028FAD00220FEF794FD00BF1E
:101E3000FEF79AFD0828FBD110BD0000014600BF47
:101E4000704700BF604A128812F0400FFAD0C2B249
:101E50005D4B1B1D1A8070470FB410B5B4B0002441
:101E600037A80090C92101A8009B369A00F016FD02
:101E70000EE02046621CD4B201AA115C5248FEF763
:101E8000E1FF00BF40215048FFF74AF80028F9D091
:101E9000C82C04DA01A800F017FEA042E9D80020FF
:101EA000009034B010BC5DF814FB10B586B0044649
:101EB000012144F20400FEF721FE4FF40070ADF85A
:101EC000140003208DF8160018208DF8170005A9BE
:101ED0003E48FEF761FB4FF48060ADF8140004202B
:101EE0008DF8170005A93948FEF756FB25208DF817
:101EF000000003208DF801008DF8020001208DF80C
:101F000003006846FEF77FFA01940020ADF8080050
:101F1000ADF80A00ADF80C00ADF810000C20ADF8DB
:101F20000E0001A92848FEF794FE012240F2255137
:101F30002548FEF726FF01212348FEF716FF06B0CD
:101F400010BD10B540F225511F48FEF7FFFF0028D5
:101F500038D01D48FEF77AFFC4B221461CA000F01D
:101F6000B7FC1C48008810F4004F2BD1194800889A
:101F700010F4804F0CD00A2C03D0002015490880A3
:101F800020E01448008840F400401249088019E01D
:101F90000D2C06D10F48008840F480400D49088080
:101FA00010E00C480088C0F30D000B490C540948A0
:101FB0000088401C0749088008460088C72801DDC2
:101FC0000020088010BD00000038014000080140DA
:101FD00025630000280000203C00002010B50121EE
:101FE0004FF0C050FEF797FD0120FFF754F8FEF7C1
:101FF000F1FF0120FEF7F2FC00BF4120FEF75BFC81
:102000000028FAD04FF48070FEF701FD0120FEF7A2
:1020100004FDFFF7FFF8FFF7F5F847F6FF70FFF74D
:10202000CBF8FFF7EFF810BD10B50420FFF701F86B
:10203000A0F52541A53907D0FFF7D0FF4AF2A551F9
:102040000420FEF7F0FF0DE07B20FEF734FC10B912
:102050007A20FEF730FCFEF78FFD0120FEF7DDFC55
:10206000FFF7D8F810BD10B50120FFF7F7F80120F1
:10207000FFF704F9FFF7C6F810BD10B50220FFF70F
:10208000EDF80220FFF7FAF8FFF7BCF810BD0146A3
:10209000CA1701EB92729210B1EB820212D1642046
:1020A00091FBF0F200FB121050B94FF4C87091FB95
:1020B000F0F200FB121008B9012070470020FCE785
:1020C0000120FAE70020F8E72DE9F05F06460F4609
:1020D00090469946DDE90AAB0024B6F5FA6F03DBBA
:1020E00040F63300864202DD0120BDE8F09F40F259
:1020F000B2750AE02846FFF7CAFF10B179480444D8
:1021000001E079480444681C85B2B542F2DB781ED0
:10211000C7B2002510E07548405D40F2A321484356
:1021200004EBC0143046FFF7B2FF18B1012D01D106
:102130006F480444681C85B2BD42ECDBA8F1010085
:1021400040F2A321484304EBC014C9EB4910C0EB93
:10215000092004EB0014CAEB0A1004EB80045C4471
:10216000FFF73CFF4AF2A5510420FEF75CFF204632
:10217000FFF715F8FFF746F80020B6E7F0B503467D
:102180000C461546642093FBF0F0C6B2642093FB26
:10219000F0F700FB1730C1B2132E02DD01F164002D
:1021A000C1B20846CF1701EB977701EBA7020720D2
:1021B00092FBF0F700FB172082B25719601EDFF880
:1021C00034C11CF80000384482B2CF1701EB977776
:1021D000BF10B1EB870703D1032C01DA501E82B286
:1021E000072092FBF0F700FB1720C0B2F0BD70B5DE
:1021F000002600240025FEF7C9FF06463C48B6FB32
:10220000F0F43D480088A0423DD03B490C8040F2AC
:10221000B27510E02846FFF73AFF40B1B4F5B77F3A
:1022200002D3A4F5B77404E0681C85B206E0A4F2FA
:102230006D14681C85B2B4F5B67FEBD800BF2F488B
:102240000580002516E02D480088FFF720FF30B1FB
:10225000012D04D11D2C01D31D3C09E00CE02348C5
:10226000405DA04203D82148405D241A00E003E00D
:10227000681C85B21C2CE6D200BF681C204908707F
:10228000601C204908701A48B6FBF0F100FB11648D
:102290004FF46160B4FBF0F01B4908704FF46160CB
:1022A000B4FBF0F100FB11403C21B0FBF1F0174909
:1022B00008704FF46160B4FBF0F100FB11403C2169
:1022C000B0FBF1F201FB1200114908700D480278D1
:1022D0000B48017809480088FFF750FF0D49087046
:1022E000002070BD0085E2018033E101B43F0008A9
:1022F00080510100A83F000830000020320000207B
:102300003400002035000020360000203700002077
:10231000380000203900002008B501211C20FEF7FC
:10232000EDFB01214805FEF7F6FBC020ADF80000EB
:102330001C208DF8030003208DF8020069469D489B
:10234000FEF72AF908BD1FB5FFF7E6FF0020ADF83C
:1023500004004BF6FF70ADF80600C020ADF8080091
:102360004FF48060ADF80A000001ADF80C0092480F
:10237000009069469148FFF77EFA01218F48FFF7E8
:10238000F8FA1FBD2DE9F04105460F4614461E46DA
:1023900001218A48FFF711FB00BF89498748FFF7F1
:1023A000E8FB0028F9D0002229468448FFF75BFBB0
:1023B00000BF84498148FFF7DCFB0028F9D039468B
:1023C0007E48FFF74AFB00BF7E49891C7B48FFF728
:1023D000D0FB0028F8D00CE021787848FFF73DFBCF
:1023E000641C00BF7749891C7448FFF7C2FB0028B2
:1023F000F8D03000A6F101018EB2EDD101216F4875
:10240000FFF7E7FABDE8F08170B504460E461546C1
:1024100001216A48FFF7D1FA00BF69496748FFF711
:10242000A8FB0028F9D0002221466448FFF71BFBD7
:1024300000BF64496148FFF79CFB0028F9D0314692
:102440005E48FFF70AFB00BF5E49891C5B48FFF747
:1024500090FB0028F8D029465848FFF7FEFA00BF45
:102460005849891C5548FFF784FB0028F8D0012102
:102470005248FFF7AEFA70BD2DE9F04106460F460F
:1024800015461C4600BF4FF400314C48FFF793FB44
:102490000028F8D101214948FFF78FFA00BF4849C9
:1024A0004648FFF766FB0028F9D001223146434831
:1024B000FFF7D9FA00BF4249491C4048FFF759FBD2
:1024C0000028F8D016E0012C07D100213B48FFF787
:1024D0008CFA01213948FFF77CFA39493F313748F6
:1024E000FFF747FB30B13548FFF7B9FA28706D1C8C
:1024F000601E84B2002CE6D101213048FFF775FA46
:10250000BDE8F08170B504460D4600BF4FF40031C0
:102510002A48FFF750FB0028F8D101212748FFF790
:102520004CFA00BF26492548FFF723FB0028F9D0C5
:10253000002221462148FFF796FA00BF21491F4893
:10254000FFF717FB0028F9D001211C48FFF711FA0B
:1025500029461A48FFF781FA00BF1A49891C174813
:10256000FFF707FB0028F8D001211448FFF725FAF0
:1025700000BF13491148FFF7FCFA0028F9D00122E7
:1025800021460E48FFF76FFA00BF0D49491C0B4862
:10259000FFF7EFFA0028F8D000210848FFF725FAE6
:1025A00001210648FFF715FA0448FFF758FA0646D6
:1025B000304670BD000C0140400D03000054004047
:1025C0000100030082000700F8B50646002400253C
:1025D00002236A4600219E20FFF74EFF9DF800402F
:1025E0000020307014F0800F05D001203070E043DF
:1025F000C4B2601CC4B214F0010F01D0681CC5B293
:1026000014F0020F01D0A81CC5B214F0040F01D0C1
:10261000281DC5B214F0080F02D005F10800C5B29C
:1026200014F0100F02D005F11000C5B214F0200F05
:1026300002D005F12000C5B214F0400F02D005F120
:102640004000C5B2761C357000259DF8014014F09D
:10265000200F02D005F10C00C5B214F0400F02D0DB
:1026600005F11900C5B214F0800F02D005F1320057
:10267000C5B2761C3570F8BD10B5012211469E20FA
:10268000FFF7C2FE10BD000000B587B01C2266A196
:10269000684600F038FA1C236A4600217820FFF7CC
:1026A00071FE07B000BD70B5B0241BE022460021CA
:1026B0007820FFF7A9FE102200217820FFF7A4FE62
:1026C000002211467820FFF79FFE002506E0002239
:1026D00040217820FFF798FE681CC5B2842DF6DBF8
:1026E000601CC4B2B82CE1DB70BD08B555A0006811
:1026F000009003236A4600217820FFF743FE08BDBF
:1027000010B5FFF7F2FFFFF7CEFFFFF7BDFF4FF465
:10271000E130FFF7CAFB10BD10B50446812200214D
:102720007820FFF771FE224600217820FFF76CFE2B
:1027300010BD2DE9F04706460C4615460027A01CA3
:10274000C4B2BA4659E006F1B000C2B20021782006
:10275000FFF75AFE3CA0FFF77FFB06F1B00141A056
:10276000FFF77AFBA046E01704EB1070001100F1B0
:10277000100200217820FFF747FEE01704EB1070ED
:10278000001100F110013AA0FFF766FBE01704EB1F
:1027900010700011A4EB0010C2B200217820FFF7E6
:1027A00033FEE01704EB10700011A4EB001133A00E
:1027B000FFF752FB4FF0000916E007EB0510A0F5FC
:1027C000007031490A5C40217820FFF71DFE07EBBD
:1027D0000510A0F500712DA0FFF73EFB781CC7B2D5
:1027E00009F1010000F0FF09B9F1080FE5DB701CE9
:1027F000C6B20AF1010000F0FF0ABAF1020FA2DB33
:10280000BDE8F08770B506460C46002508E014F8D0
:10281000012BE806010E3046FFF78BFF681CC5B29E
:1028200020780028F3D170BDAE0010D580A83FD32A
:1028300000B0408D14A1C8DA1281FFD9F1DB30203D
:1028400000A4A6AFAE8D10003D3D3D3D3D3D3D3D5C
:102850003D3D3D3D3D3D3D3D3D3D3D3D3D3D3D0ADB
:1028600000000000307862302B783A2025780A008A
:10287000B8DF34CEBB3A2025780A0000B5CD34CE7F
:10288000BB3A2025780A0000C03F00084153434965
:10289000493A2025780A0000704700007CB51D46A3
:1028A00016460C00009001D02044401E074B7B448C
:1028B0002A4669460190304600F0EDF905461CB104
:1028C0000020694600F0FAF928467CBD1504000096
:1028D0000FB4044910B503AA029800F013FA10BC13
:1028E0005DF814FB2C00002070B50C460546012A4B
:1028F00005D02878800600D5EA69002302E001238C
:1029000005E05B1C934202D2E05C0028F9D1A86983
:10291000E618C01AA861286A18442862284600F000
:1029200028F904E0D5E9012114F8010B9047B442DD
:10293000F8D3284600F034F970BD00002DE9F05FAF
:10294000894604464FF0000ADFF878B1FB44C0F82E
:1029500020A02046E1688847002875D0252806D0A9
:10296000D4E901219047206A401C2062F1E700264B
:102970005F462046E16888472028054608DB312D60
:1029800006D207EB050010F8200C08B10643F0E76B
:10299000B00701D526F00406C4F81CA00027C4F82F
:1029A00018A02A2D09D0284601F0C9FA38B304EB43
:1029B0008708303DC8F8185019E059F8041B204624
:1029C00004EB87029161E1688847012F054618D121
:1029D000E069002820DA26F020061DE0D8F818006B
:1029E00000EB800005EB40003038C8F818002046A6
:1029F000E1688847054601F0A2FA0028EED1012FD0
:102A00000AD02E2D08D12046E16888477F1C054654
:102A1000022F46F02006C4DBA069002803DA4042FA
:102A200046F00106A061F00701D026F010066C2DDB
:102A30000BD0682D09D04C2D39D06A2D35D0742D8E
:102A400035D07A2D33D016E038E0E1682F462046A5
:102A50008847B842054609D16C2F26D04FF48060D4
:102A6000E168064320468847054604E06C2F1AD0EB
:102A70004FF4807006430DB3A5F14100192802D828
:102A8000203546F400664A462946204626604E46D2
:102A9000FDF766FB80B101280BD0F61D26F007007C
:102AA00000F1080955E74020E4E78020D8E700203E
:102AB000D6E706F104094CE7284651E7206ABDE84D
:102AC000F09F0000701C000010B5431C02E010F8DD
:102AD000011B71B18107FAD14FF0013202C88C1A83
:102AE0008C4314EAC211F9D0C01A0A0603D0C01EE2
:102AF00010BDC01A10BD0A0401D0801E10BD09020D
:102B0000FCD0401E10BD10B5203AC0F00B80B1E8DB
:102B10001850203AA0E81850B1E81850A0E8185012
:102B2000BFF4F5AF5FEA027C24BFB1E81850A0E81B
:102B3000185044BF18C918C0BDE810405FEA827C35
:102B400024BF51F8043B40F8043B08BF7047D2074C
:102B500028BF31F8023B48BF11F8012B28BF20F8ED
:102B6000023B48BF00F8012B704770477047704721
:102B7000704770B5044685690068C10601D53026E6
:102B800000E02026C00708D070BDD4E901213046FE
:102B90009047206A00F1010020626D1EF5D570BDDE
:102BA00070B5044685690078C00708D170BDD4E9C6
:102BB000012120209047206A00F1010020626D1E53
:102BC000F5D570BD09684A0501D540B27047C90501
:102BD000FCD500B2704709684A0501D5C0B27047FC
:102BE000C905FCD580B270472DE9F04106460024A6
:102BF00010687529314616A511D0FFF7E3FF0028AC
:102C000003DAC0F1000013A507E031688A0701D597
:102C100011A502E0490704D510A5012401E0FFF742
:102C2000DAFF00210A2306F1240707E0B0FBF3F2E4
:102C300003FB1200303078541046491C0028F5D1AF
:102C400023462A463046BDE8F04100F0D6B90000E0
:102C5000000000002D0000002B00000020000000FC
:102C600011680268006A530501D508700BE0D305AE
:102C700001D5088007E0130603D5C217C1E9000299
:102C800001E05206086001207047000001694A1CFB
:102C900002610878704700B58FB0CDE9013100219D
:102CA000059105497944CDE9031011466846FFF7BF
:102CB00045FE0FB000BD0000E5FFFFFF0A6802F807
:102CC000010B0A607047D1E900239A4202D2531CDB
:102CD0000B601070704710B5436913B1AFF30080FB
:102CE00001E0FFF701FE012010BD127800F1240180
:102CF0000A7000224A700122EDE711684FF0FF329E
:102D0000E9E70000074B70B50D467B44FFF7C3FFB2
:102D10000446284600F0F3FB10B14FF0FF3070BDC1
:102D2000204670BD35F1FFFF2DE9FF5F15468A464D
:102D30000446DFF8AC80F8440027D8E900103E468E
:102D4000CDE9001011E03AF816106A4602A800F02A
:102D5000DAFB411C07D02178890603D5E2693918CE
:102D600091420ED8074406F101062078800602D56C
:102D7000E069B84205DDAE42E5DB3AF8160000280E
:102D8000E1D1A069C01BA0612046FFF7F2FED8E99F
:102D90000010CDE90010002016E03AF818106A463D
:102DA00002A800F0B0FB8146401C0BD000250DF1BD
:102DB000080B05E0D4E901211BF8050090476D1CC4
:102DC0004D45F7D308F10100B0428046E5DB206AAB
:102DD000384420622046FFF7E3FEBDE8FF9F000075
:102DE0009A1800002DE9F0418046D21D22F007021A
:102DF0000025D2E90002F52914A612D0002A06DA2D
:102E00000023D0EB030063EB020211A608E0D8F820
:102E100000108B0701D50FA602E0490701D50EA6C9
:102E200001251146002408F1240704E000F0A0F871
:102E300030323A55641C50EA0102F7D12B46324633
:102E400021464046BDE8F04100F0D7B80000000040
:102E50002D0000002B0000002000000030B40021F5
:102E600000F124040CE002F0070505F130054FEAFB
:102E7000D20242EA4372655401F101014FEAD303E1
:102E800052EA0305EFD10468002310A2250708D5F4
:102E900004F020040C4304D0C46901230CA2641E76
:102EA000C46130BC00F0A9B810B5044621461068D2
:102EB000FFF791FE02462046BDE810400023CDE713
:102EC000D21D22F00701D1E90023C7E7000000006E
:102ED00030000000F0B40D460188090502D5234CEE
:102EE0007C4402E0214C7C440E34002100F1240695
:102EF0000BE002F00F074FEA1212E75D42EA03729D
:102F00004FEA1313775401F1010152EA0307F0D19C
:102F100002780023120704D5702D06D009B11134B0
:102F200002232246F0BC00F068B810340123F8E711
:102F300070B504460D4621461068FFF74CFE024668
:102F400029462046BDE870400023C3E7D21D22F089
:102F50000703D3E90023BDE70368126843F02003A9
:102F600003600823C3610023B4E70000F8160000E3
:102F700030B5B0F10A024FEA900E71F100034EEA4B
:102F8000817EB0EB0E0061EB91014FEA101E4EEA1C
:102F9000017E10EB0E0041EB11114FEA102E4EEAAC
:102FA000016E10EB0E0041EB11214FEA104E4EEA7C
:102FB000014E10EB0E0041EB1141401841F10001B0
:102FC0004FEAD00040EA41704FEAD10110EB800592
:102FD0004FEA810444EA907444EB01046D1944EB18
:102FE0000404521BA3414FF0000348BF0A3200D52E
:102FF00030BD401C41F1000130BD2DE9F0470D46C8
:1030000099469246044600F124080168880604D5D2
:10301000E06921F01001216000E00120A84202DDFA
:10302000A0EB050700E00027A16907EB050202EB12
:103030000900A1EB0000A0612078C00602D4204660
:10304000FFF797FD002608E0D4E901211AF80600F1
:103050009047206A401C761C20624E45F4DB2078A5
:10306000C0060AD52046FFF784FD06E0D4E9012119
:1030700030209047206A401C2062381EA7F10107CB
:10308000F4DC07E0D4E9012118F805009047206A34
:10309000401C2062281EA5F10105F3DC2046FFF745
:1030A0007FFD2078000602D50220BDE8F0870120D0
:1030B000FBE770472DE9FF4F0C461E464FF0FF37E8
:1030C0008BB0D2E90001DDF860800A908A46C1F336
:1030D0000A5505B93D46002108464FF00000BAF1F7
:1030E000000F00F4400005DA00EB80004FF44001CF
:1030F00001EA50004FEA9059B9F1010F00DDB946DD
:103100000A9850EA4A000ED044F61050A5F2FF3556
:1031100045432F14B8F1000F1ED07542291E1EDD45
:10312000C9F100021CE0B8F1010F4FF0000001D01E
:10313000302103E0F24305E02154401CB042FBDBA8
:1031400030460022002121540B99C1F80880C1E9C2
:1031500000200FB0BDE8F08FBD1B6D1CDEE74A46B6
:1031600000DA694206A800F05FFA06AB07CB03ABB2
:1031700007C350460A9900F013FB8DE80700A0F53D
:1031800000501F3800900398002D09DD42F21F0106
:103190004A46084403A90390684600F072FD08E01F
:1031A000A0F500504A461F3803A90390684600F076
:1031B0007CFD8DE807000004000C03D04FF0FF30C9
:1031C000410800E01046B8F1000F03D00022009241
:1031D00015461FE0751E06D4FFF7CAFE02F1300245
:1031E00062556D1EF8D5B3460122084302D0002275
:1031F0007F1C04E02078302801D100227F1E002AA5
:10320000099787D01DE0112D07DAFFF7B1FE3032A4
:1032100062556D1C50EA0102F5D108430FD100211F
:10322000681E05E0235C625C6354491C2254401E06
:103230008142F7DBAB46A81B401E099001E00098D5
:1032400048B1002004F80B000B98099AC0F80880D8
:10325000C0E9002B7DE711264FF000085AE72DE961
:10326000F04F88460446D21D22F0070191B0D1E903
:103270000001CDE90A0100F04EFE02460B98C00F96
:1032800001D02D2007E02068810701D52B2002E026
:10329000202101EAC000032A099001D0072A05DB9A
:1032A00003464146204600F07FF90FE12078800672
:1032B00001D5E06900E00620B8F1650F814606D02F
:1032C000B8F1660F18D0B8F1670F72D132E0002064
:1032D000B9F1110F009001DB112301E009F10103A5
:1032E0000AAA01A90CA8FFF7E5FEDDE90C7000268B
:1032F00009F10105834648E001204B4600904FF05C
:1033000000470AAA01A90CA8FFF7D4FEDDE90DB019
:103310000C995D46002618B909F1010001EB000582
:10332000B9EB050003D4C0F1FF3609F10105A5EBA7
:1033300009002BE0B9F1010F01DA4FF0010900207B
:10334000B9F1110F0090484601DD112300E003465A
:103350000AAA01A90CA8FFF7ADFEDDE90C704D46E5
:1033600000268346207800070AD4AB4500DA5D4684
:1033700001A8012D04DD411911F8011C302907D0E5
:103380004F4502DA17F1040F04DA0120824610E0FB
:103390006D1EEEE7002F02DCED1B3E4403E0781CBF
:1033A000A84200DD0546A7EB060000F1010A4FF038
:1033B00000472078000703D4AA4501DB4FF0FF3A0D
:1033C0000021B7F1004F0DF143088DF8431023D0D1
:1033D00002202B23002F01DA7F422D234FF00A0C0D
:1033E000011EA0F1010000DC4FB197FBFCF10CFBCA
:1033F00011720F4602F1300208F8012DF0E7A8F132
:10340000010003702188090501D5452100E06521EF
:10341000A0F1010800F8011C09980FA9A1EB080709
:1034200007F1070700B1012000EB050101EBEA708D
:10343000A1693844A1EB0000A0F10100A06120784F
:10344000C00602D42046FFF794FB099830B1D4E9B6
:1034500001219047206A00F1010020622078C00617
:1034600020D52046FFF785FB1CE0002E04DBB3458A
:1034700002DD01A8805D00E03020D4E90121904701
:10348000206A761C401CBAF1010A20620AD100F0C1
:1034900087F8C0680168405CD4E901219047206A40
:1034A000401C2062281EA5F10105DEDC07E0D4E9FE
:1034B000012118F8010B9047206A401C2062381E39
:1034C000A7F10107F3DC2046FFF76AFB022011B0E9
:1034D00040E610B5436913B1AFF3008001E0FFF798
:1034E00023FC012010BD128800F1240182840022F7
:1034F000C2840122EDE711684FF0FF32E9E7007B5B
:1035000000F08000704770B50C461646054600F086
:103510003FF8036893F80101012806D0FF2C0FD86B
:10352000185D68B101202C7070BDD3F807013246D8
:10353000214603442846BDE8704003F207131847AC
:103540004FF0FF3070BD754600F0E6F8AE4605005E
:103550006946534620F00700854618B020B5FEF7AF
:1035600075FBBDE820404FF000064FF000074FF01C
:1035700000084FF0000B21F00701AC46ACE8C00991
:10358000ACE8C009ACE8C009ACE8C0098D4670479A
:1035900010B500F005F8001D10BD00BFDD090000EA
:1035A00000487047240100202DE9F0411F460446E1
:1035B00003260168072A01F4006004DB08B116A5A0
:1035C00005E016A503E008B115A500E015A521F05A
:1035D00010002060A069C01EA0610FB1401EA06154
:1035E0002046FFF7C6FA4FB1D4E90121384690478B
:1035F000206A401C2062C01C206206E0206AFAE7B4
:10360000D4E9012115F8010B9047761EF8D2204627
:10361000FFF7C6FABDE8F0814E414E006E616E00C4
:10362000494E4600696E66002DE9F0478146164610
:103630008AB035487844D0E9002380680092CDE90B
:103640000130314878440C38D0E9022300690392F4
:103650004FF03702CDE9043041F69B30014491FB35
:10366000F2F0A0F1800502FB10141B3C02D564426D
:10367000012000E00020DFF890A080460027FA44F7
:10368000AAF1C60A0DE0E00709D03246684607EB0A
:1036900047010AEB810100F008FB8DE80700641088
:1036A0007F1C002CEFD1184F7F44B43F17E0E80790
:1036B00013D007EB04100DF1180A90E80E00AAE8E9
:1036C0000E00C068F04201D198190890324606A950
:1036D00003A800F0EAFA03AB07C36D10641C002DC9
:1036E000E5D132466946B8F1000F03A802D000F0D8
:1036F000C8FA01E000F0D9FAC9E90001C9F80820C8
:103700000AB0BDE8F0870000481000000446AFF39F
:1037100000802046FCF787FD004870470401002028
:103720004FF0013C50F8042B51F8043B9A4221D150
:10373000A2EB0C03934313EACC1317D150F8042BDC
:1037400051F8043B9A4215D1A2EB0C03934313EAC0
:10375000CC130BD150F8042B51F8043B9A4209D1F9
:10376000A2EB0C03934313EACC13DBD04FF0000021
:10377000704700BFD01A01BAB1FA81F101F0180107
:1037800022FA01F0CB40C1F12001DBB2C0B2C01A75
:103790002CFA01F3D11A914311EAC311E6D1704713
:1037A0005FEA400C08BF91F0000F4FEA8C234FEA0C
:1037B000C12243EA51514FEA1C5018BF00F5F040B6
:1037C0004FEA300018BF41F000415FEA6C5C00F046
:1037D0002980BCF1FF3F08BF40F080407047130CC8
:1037E00006BF12044FF0100C4FF0000C130E04BF74
:1037F00012020CF1080C130F04BF12010CF1040C9F
:10380000930F04BF92000CF1020CD30F04BF5200BF
:103810000CF1010C11464FF00002A0F11F00A0EBCB
:103820000C00704711F0004F08BF704731F00041A5
:103830003FF4D5AF0B0C06BF09044FF0100C4FF04E
:10384000000C0B0E04BF09020CF1080C0B0F04BF97
:1038500009010CF1040C8B0F04BF89000CF1020C60
:10386000CB0F04BF49000CF1010CCCF12003A0EBFD
:103870000C0022FA03F302FA0CF241EA030100F110
:103880000100704720F07F4C80EA030023F07F475F
:10389000ACEB070303F57C5300F0004003F1FF039A
:1038A0002DE980494FEA154B09B44FEA144325EA44
:1038B0000B4E24EA03480FF2042606EB13274908AF
:1038C0003E785FEA320203FB0667C7F5000707FB95
:1038D00006F64FEA54374FEAD64606F1020607FBD2
:1038E000066CCCF1005C4FEA1C472CEA074C07FB46
:1038F00006F40CFB06F504EB15464FEA961634BFAA
:1039000000204FF000404FEAD13706FB07FC4FEA9A
:103910001C4C0CFB0BF7D21B03FB0CF761EB0701F4
:103920000CFB0EF7B0EB074072EB17420CFB08F7ED
:1039300034BFA2EB0742B2EB074261EB17414FEAFB
:103940000C444FEA910706FB07FC4FEA1C4C0CFBAA
:103950000BF7B0EBC74072EB573203FB0CF734BFE9
:10396000A2EBC742B2EBC74261EB57310CFB0EF73B
:10397000B0EBC70072EB57720CFB08F734BFA2EB39
:10398000C702B2EBC70261EB5771039F4FEA816137
:1039900041EA921104EBCC044FEAD1374FEA82623C
:1039A00006FB07FC42EA90124FEA80604FEA1C4C8B
:1039B0000CFB0BF7D21B03FB0CF761EB07010CFBB5
:1039C0000EF7B0EB074072EB17420CFB08F734BF61
:1039D000A2EB0742B2EB074261EB17414FEA8C556D
:1039E0004FEA910704EB9C2406FB07FC4FEA1C4CB2
:1039F0000CFB0BF7B0EBC74072EB573203FB0CF735
:103A000034BFA2EBC742B2EBC74261EB57310CFBAC
:103A10000EF7B0EBC70072EB57720CFB08F734BF20
:103A2000A2EBC702B2EBC70261EB577115EB4C2555
:103A30004FEA816141EA92114FEA82624FEAD1373F
:103A400042EA901206FB07FC44F100044FEA806052
:103A50004FEA1C4C0CFB0BF7D21B03FB0CF761EB82
:103A600007010CFB0EF7B0EB074072EB17420CFBA3
:103A700008F734BFA2EB0742B2EB074261EB1741F4
:103A800015EB1C154FEA813141EA92414FEA82322F
:103A900042EA90424FEA80304FEA0C7644F100044B
:103AA00048EA03434EEA0B484FF0000EB2EB080C15
:103AB00071EB030724BF624639464EEB0E0E4FF002
:103AC000000B0018524149414BEB0B0BB2EB080CB9
:103AD00071EB03077BF1000B24BF624639464EEBC6
:103AE0000E0E4FF0000B0018524149414BEB0B0BEF
:103AF000B2EB080C71EB03077BF1000B24BF6246AD
:103B000039464EEB0E0E51EA020718BF46F0010689
:103B100016EB0E7655F1000254F1000103D5BDE815
:103B20008901BDE80088BDE88901BDE80048B619F3
:103B3000524141EB0101A3F10103704780807F7E78
:103B40007D7C7B7A79787776767574737271717013
:103B50006F6E6E6D6C6C6B6A6A69686867666665C5
:103B60006464636362616160605F5F5E5E5D5D5C53
:103B70005C5B5B5A5A5959585857575656555555C4
:103B80005454535352525251515050504F4F4F4E24
:103B90004E4D4D4D4C4C4C4B4B4B4A4A4A49494972
:103BA00048484847474747464646454545444444B4
:103BB000444343434342424242414141002B26D4C5
:103BC000770021D01CB54FEA370703B44FF010003F
:103BD0004FF010014FF000000FBCBDE810400BF19A
:103BE000010BBBF1010F08BF5FEA170722BF12F1FB
:103BF000010211F101014FF0004143F1000300F017
:103C0000004043EA00007047F9D35708DAE746EA74
:103C1000064613F1400F4FEA16461FDD13F1200F41
:103C2000DFBF16430A46002120335B42C8D0C3F1F0
:103C3000200746EA064602FA07F74FEA164646EA22
:103C40000706C3F1200722FA03F201FA07F721FA67
:103C500003F14FF0000342EA0702B1E746EA020629
:103C600046EA06464FEA164646EA0106BCBF46EA61
:103C70000646360C4FF000034FF000024FF00001F3
:103C80009EE72DE9C048934630B491E8380007C854
:103C900031EA400C48BF34EA430C03D5FFF7F2FD8C
:103CA000FFF78CFFF0BCBDE800882DE9C0489346C3
:103CB00030B491E8380007C810F0804F08BF13F007
:103CC000804F03D100F005F8FFF778FFF0BCBDE8A6
:103CD000008820F07F4780EA030023F07F4C07EB49
:103CE0000C03A3F57C5300F00040A3F1FE0392F017
:103CF000000F00F0B38095F0000F00F077802DE901
:103D000001494FEA11404FEA144621EA004800FBFE
:103D100006FC24EA064708FB06F607FB08F800FB4A
:103D200007F718EB06484CEB164C4FEA124B18EB12
:103D300007484FEA15464CEB174022EA0B4E0BFBA7
:103D400006FC25EA06470EFB06F607FB0EFE0BFBFC
:103D500007F71EEB064E4CEB164C4FF000061EEB21
:103D6000074E4CEB174B18EB0B0840F1000018EB1B
:103D70000E0B58EB000840F100008F1A4FF00001C5
:103D80003CBFC943661B14BFB5EB040C00213CBF0C
:103D9000C943F61B4FEA17444EEA8E0E27EA044544
:103DA0004FEA1C4704FB07622CEA074C05FB07F7A8
:103DB0000CFB05F604FB0CFC16EB074642EB174226
:103DC00016EB0C4642EB1C421BEB060658EB0202BC
:103DD000414146EA9E0601D5BDE80189B619524126
:103DE00041EB0101A3F10103BDE801894FEA14454C
:103DF0004FEA114724EA054621EA074C05FB07F480
:103E000006FB07F70CFB06F105FB0CFC11EB074169
:103E100044EB17444FEA124711EB0C4144EB1C44AE
:103E200022EA074C05FB07F206FB07F70CFB06F638
:103E300005FB0CFC16EB074642EB174216EB0C4653
:103E400042EB1C456A1854F1000148BF7047B6198F
:103E5000524141EB0101A3F10103704795F0000FBE
:103E600037D04FEA11424FEA144721EA024624EACA
:103E7000074C02FB07F106FB07F70CFB06F402FBFD
:103E80000CFC14EB074441EB17414FEA154714EBC8
:103E90000C4441EB1C4125EA074C02FB07F506FBED
:103EA00007F70CFB06F602FB0CFC16EB074645EB8E
:103EB000174516EB0C4645EB1C42121951F1000157
:103EC00048BF7047B619524141EB0101A3F101030C
:103ED00070474FEA14454FEA114724EA054621EAA4
:103EE000074C05FB07F106FB07F70CFB06F24FF04A
:103EF000000605FB0CFC12EB074241EB174112EBED
:103F00000C4251EB1C4148BF7047921841EB010134
:103F1000A3F101037047490050EAC12018BF0420F3
:103F20004A0D18BF40F0010040F2FF72B2EB515F42
:103F300008BF40F00200012808BF05207047303854
:103F40000A2801D2012070470020704710B50029CF
:103F50000AD00878002807D005487844FFF7E0FB2E
:103F6000002801D0002010BD0248784410BD000098
:103F70005E0700005607000010B500290AD0087837
:103F8000002807D005487844FFF7CAFB002801D075
:103F9000002010BD0248784410BD00004E0700000C
:103FA00046070000FFF75BB90003030601040602A1
:103FB000050003051F1C1F1E1F1E1F1F1E1F1E1F87
:103FC00000000000000000000000000000000000F1
:103FD000000038FCFC3800000000000D0D0000005F
:103FE000000E1E00001E0E00000000000000000079
:103FF00020F8F820F8F82000020F0F020F0F02003F
:10400000387C444747CC98000306041C1C07030077
:1040100030300080C06030000C060301000C0C0042
:1040200080D87CE4BCD84000070F0808070F0800C0
:1040300000101E0E00000000000000000000000044
:104040000000F0F80C040000000003070C0800005A
:104050000000040CF8F000000000080C070300004A
:1040600080A0E0C0C0E0A0800002030101030200C4
:10407000008080E0E080800000000003030000007A
:1040800000000000000000000000101E0E000000F4
:1040900080808080808080000000000000000000A0
:1040A00000000000000000000000000C0C000000F8
:1040B00000000080C06030000C060301000000001A
:1040C000F8FC04C424FCF800070F0908080F0700D7
:1040D000001018FCFC0000000008080F0F08080082
:1040E000080C84C4643C18000E0F0908080C0C006E
:1040F000080C444444FCB800040C0808080F0700EE
:10410000C0E0B098FCFC8000000000080F0F080021
:104110007C7C4444C4C48400040C0808080F0700D5
:10412000F0F84C4444C08000070F0808080F07004F
:104130000C0C0484C47C3C0000000F0F0000000045
:10414000B8FC444444FCB800070F0808080F0700F7
:10415000387C444444FCF800000808080C070300BD
:1041600000000030300000000000000606000000E3
:1041700000000030300000000000080E06000000C3
:104180000080C0603018080000000103060C080021
:104190004040404040404000020202020202020051
:1041A0000008183060C0800000080C060301000001
:1041B000181C04C4E43C18000000000D0D000000B1
:1041C000F0F808C8C8F8F000070F080B0B0B010047
:1041D000E0F0988C98F0E0000F0F0000000F0F0047
:1041E00004FCFC4444FCB800080F0F08080F07004B
:1041F000F0F80C04040C180003070C08080C060067
:1042000004FCFC040CF8F000080F0F080C07030076
:1042100004FCFC44E40C1C00080F0F08080C0E0002
:1042200004FCFC44E40C1C00080F0F080000000014
:10423000F0F80C84848C980003070C0808070F0022
:10424000FCFC404040FCFC000F0F0000000F0F0082
:10425000000004FCFC0400000000080F0F08000030
:1042600000000004FCFC0400070F08080F07000012
:1042700004FCFCC0F03C0C00080F0F00010F0E0006
:1042800004FCFC0400000000080F0F08080C0E00DE
:10429000FCFC387038FCFC000F0F0000000F0F0012
:1042A000FCFC3870E0FCFC000F0F0000000F0F005A
:1042B000F0F80C040CF8F00003070C080C070300DE
:1042C00004FCFC44447C3800080F0F080000000088
:1042D000F8FC040404FCF800070F080E3C3F27001C
:1042E00004FCFC44C4FC3800080F0F00000F0F0052
:1042F000183C6444C49C1800060E0808080F070008
:10430000001C0CFCFC0C1C000000080F0F08000037
:10431000FCFC000000FCFC00070F0808080F070069
:10432000FCFC000000FCFC000103060C060301007D
:10433000FCFC008000FCFC00030F0E030E0F0300CA
:104340000C3CF0C0F03C0C000C0F0300030F0C0001
:10435000003C7CC0C07C3C000000080F0F0800003F
:104360001C0C84C4643C1C000E0F0908080C0E00D1
:104370000000FCFC0404000000000F0F080800000F
:104380003870E0C0800000000000000103070E004C
:1043900000000404FCFC0000000008080F0F0000EF
:1043A000080C0603060C08000000000000000000D6
:1043B00000000000000000002020202020202020FD
:1043C00000000307040000000000000000000000DF
:1043D00000A0A0A0E0C00000070F0808070F080019
:1043E00004FCFC2060C08000080F0708080F0700CD
:1043F000C0E0202020604000070F0808080C0400DF
:1044000080C06024FCFC0000070F0808070F0800AC
:10441000C0E0A0A0A0E0C000070F0808080C04003E
:1044200040F8FC440C180000080F0F0800000000C2
:10443000C0E02020C0E02000276F48487F3F0000F8
:1044400004FCFC4020E0C000080F0F00000F0F002C
:10445000000020ECEC0000000000080F0F08000036
:104460000000000020ECEC0000307040407F3F0076
:1044700004FCFC80C0602000080F0F01030E0C003C
:10448000000004FCFC0000000000080F0F08000002
:10449000E0E060C060E0C0000F0F000F000F0F00F1
:1044A00020E0C02020E0C000000F0F00000F0F0030
:1044B000C0E0202020E0C000070F0808080F070018
:1044C00020E0C02020E0C000407F7F48080F0700A8
:1044D000C0E02020C0E02000070F08487F7F400098
:1044E00020E0C0602060C000080F0F08000000003E
:1044F00040E0A02020604000040C09090B0E0400DD
:104500002020F8FC202000000000070F080C040009
:10451000E0E00000E0E00000070F0808070F0800D7
:1045200000E0E00000E0E0000003070C0C070300DF
:10453000E0E0000000E0E000070F0C070C0F0700B0
:104540002060C080C0602000080C0703070C080032
:10455000E0E0000000E0E000474F4848683F1F00EF
:10456000606020A0E06020000C0E0B09080C0C001D
:10457000004040F8BC040400000000070F080800D9
:10458000000000BCBC0000000000000F0F00000095
:10459000000404BCF84040000008080F07000000B9
:1045A000080C040C080C04000000000000000000CF
:1045B00080C0603060C08000070704040407070063
:1045C00004000008000000000000000200010000DC
:1045D0001000000000000000000000003031323305
:1045E0003435363738394142434445464030580027
:1045F0003031323334353637383961626364656659
:104600004030780002400000000000A000000000E0
:1046100005400000000000C8000000000C40000041
:104620000000409C00000000194000000020BCBEBB
:104630000000000034400000BFC91B8E00000004D1
:10464000B5400000504BCFD06607E2CF010000001C
:104650006C4100003E8251AADFEEA7340100000049
:10466000D9420000DCB5A0E23A301F97FFFFFFFF00
:10467000B4450000FD25A0C8E9A3C14FFFFFFFFF1F
:10468000FF3F00000000008000000000FF3F00002E
:104690000000008000000000E44700080000002047
:1046A0003C00000028010008204800083C000020D1
:1046B0002C070000440100081C000000430000001B
:1046C000F8FFFFFF0C0000000E0000000F000000CC
:1046D0002E0000001001000043000000F8FFFFFF63
:1046E0000040404040404040404041414141414005
:1046F00040404040404040404040404040404040BA
:104700004005020202020202020202020202020248
:10471000022020202020202020202002020202024D
:1047200002029090909090901010101010101010A5
:1047300010101010101010101010101002020202B1
:1047400002028888888888880808080808080808F5
:1047500008080808080808080808080802020202F1
:104760004000000000000000000000000000000009
:104770000000000000000000000000000000000039
:104780000000000000000000000000000000000029
:104790000000000000000000000000000000000019
:1047A0000000000000000000000000000000000009
:1047B00000000000000000000000000000000000F9
:1047C00000000000000000000000000000000000E9
:1047D00000000000000000000000000000000000D9
:1047E0000000000000A24A040000000000000000D9
:1047F0000102030406070809000000000102030487
:10480000010203040607080902040608000000006C
:104810000000000000000000000000000000000098
:04000005080000ED02
:00000001FF
