:020000040800F2
:1000000090060020DD150008E5160008E716000838
:10001000EB160008EF160008F316000800000000B9
:10002000000000000000000000000000F7160008BB
:10003000F916000800000000FB160008FD16000875
:10004000F7150008F7150008F7150008F715000860
:10005000F7150008F7150008F7150008F715000850
:10006000F7150008F7150008E51B0008F71500084C
:10007000F7150008F7150008F7150008F715000830
:10008000F7150008F7150008F7150008F715000820
:10009000F7150008F7150008F7150008FD1B000804
:1000A000F7150008F7150008F7150008F715000800
:1000B000F7150008F7150008F7150008F7150008F0
:1000C000F7150008F7150008F7150008F7150008E0
:1000D000F7150008F7150008F7150008F7150008D0
:1000E000F7150008F7150008F715000800F002F8EA
:1000F00000F03AF80AA090E8000C82448344AAF188
:100100000107DA4501D100F02FF8AFF2090EBAE885
:100110000F0013F0010F18BFFB1A43F0010318473B
:100120002C2B00004C2B0000103A24BF78C878C15B
:10013000FAD8520724BF30C830C144BF04680C60ED
:10014000704700000023002400250026103A28BF35
:1001500078C1FBD8520728BF30C148BF0B60704739
:100160001FB51FBD10B510BD01F0F9FF1146FFF717
:10017000F7FF01F053FA02F017F803B4FFF7F2FFAC
:1001800003BC02F01BF8000000210020674A12683F
:1001900042F48032654B1A6000BF644A126802F470
:1001A0000030491C10B9B1F5A06FF6D15F4A126852
:1001B00012F4003F01D0012000E00020012842D1CC
:1001C0005B4A126842F01002594B1A601A461268D4
:1001D00022F003021A601A46126842F002021A6004
:1001E000524A5268514B5A601A4652685A601A462F
:1001F000526842F480625A601A46526822F47C12B5
:100200005A601A46526842F4E8125A601A46126856
:1002100042F080721A6000BF444A126812F0007FF8
:10022000FAD0424A526822F00302404B5A601A4602
:10023000526842F002025A6000BF3C4A526802F023
:100240000C02082AF9D1704710B5FFF79DFF10BDC9
:1002500010B53648006840F001003449086008468F
:1002600040683449084031494860084600683249CE
:1002700008402E4908600846006820F48020086085
:100280000846406820F4FE0048604FF41F00886074
:10029000FFF7DAFF4FF000602849086010BD10B585
:1002A000002100200022214B5B6803F00C0121B1EA
:1002B000042906D0082928D107E0214B214C2360CE
:1002C00027E01F4B1F4C236023E0184B5B6803F4AF
:1002D0007010164B5B6803F48032022303EB9040EE
:1002E00022B9194B4343174C23600DE00F4B5B6859
:1002F00013F4003F04D0144B4343124C236003E03B
:100300000F4B43430F4C236003E00D4B0D4C236018
:1003100000BF00BF054B5B68C3F303130B4CE15CEC
:10032000084B1B68CB40074C236010BD00100240F7
:10033000002002400000FFF8FFFFF6FE08ED00E09D
:1003400000127A000000002000093D000400002097
:1003500031490143314A1160704770B500210023D3
:100360000F22C4780CB32D4C246804F4E064C4F567
:10037000E064210AC1F10403CA40447804FA03F19D
:100380008478144021430901254C0678A15504784E
:1003900004F01F050124AC4005786D114FF0E026F4
:1003A00006EB8505C5F8004109E0047804F01F0557
:1003B0000124AC401B4D0678761145F8264070BDEF
:1003C000194A0A400243154B1B1F1A60704739B186
:1003D000124A121D12680243104B1B1D1A6006E0E0
:1003E0000E4A121D126882430C4B1B1D1A60704787
:1003F000042808D14FF0E021096941F004014FF0D1
:10040000E022116107E04FF0E021096921F00401C9
:100410004FF0E022116170470000FA050CED00E09A
:1004200000E400E080E100E080FFFF1F10B504461B
:10043000CA48844208D10121042000F023FB002196
:10044000042000F01FFB46E0C548844208D101218A
:10045000082000F017FB0021082000F013FB3AE011
:10046000C048844208D10121102000F00BFB00217C
:10047000102000F007FB2EE0BB48844208D1012188
:10048000202000F0FFFA0021202000F0FBFA22E0FB
:10049000B648844208D10121402000F0F3FA00213F
:1004A000402000F0EFFA16E0B148844208D1012163
:1004B000802000F0E7FA0021802000F0E3FA0AE053
:1004C000AC48844207D10121801500F0DBFA0021FD
:1004D000A01500F0D7FA10BD10B50121084600F0B4
:1004E000D1FA0021012000F0CDFA10BD2DE9F04134
:1004F000024600250026002000230024002791F852
:1005000003C00CF00F0591F803C01CF0100F03D0CE
:1005100091F802C04CEA050591F800C0BCF1000F4B
:1005200031D0146800202BE04FF0010C0CFA00F3DE
:10053000B1F800C00CEA03069E4220D183004FF0C0
:100540000F0C0CFA03F7BC4305FA03FC4CEA040455
:1005500091F803C0BCF1280F06D14FF0010C0CFA42
:1005600000FCC2F814C00AE091F803C0BCF1480FC7
:1005700005D14FF0010C0CFA00FCC2F810C0401C71
:100580000828D1D31460B1F800C0BCF1FF0F34DDEE
:10059000546800202EE000F1080C4FF0010808FA22
:1005A0000CF3B1F800C00CEA03069E4221D183008F
:1005B0004FF00F0C0CFA03F7BC4305FA03FC4CEAAE
:1005C000040491F803C0BCF1280F05D100F1080C18
:1005D00008FA0CF8C2F8148091F803C0BCF1480F77
:1005E00007D100F1080C4FF0010808FA0CF8C2F826
:1005F0001080401C0828CED35460BDE8F0814FF62F
:10060000FF710180022181700421C1707047024690
:10061000002093680B4201D0012000E000207047C9
:100620000146886880B2704702460020D3680B42BA
:1006300001D0012000E0002070470146C86880B268
:10064000704701617047416170470AB1016100E084
:1006500041617047C16070474FF480320A43826144
:100660008161826182698269704702460020424B43
:1006700018684FF68073184040EA021008433E4B5A
:10068000186070473D49C8617047F0B50A460023BD
:1006900000240021002500F00046B6F1004F02D1F1
:1006A000354EF16901E0344E7168C0F3034583B201
:1006B00000F44016B6F5401F08D121F070612E4EAF
:1006C000766826F070662C4F7E6012E000F480168B
:1006D000B6F5801F06D1032606FA05F4A14341F0C2
:1006E000706106E0460D360103FA06F6B14341F0AB
:1006F000706122B1460D360103FA06F6314300F06F
:100700000046B6F1004F02D11B4EF16101E01A4ED6
:100710007160F0BD30B500228B071C0F0F2303FA68
:1007200004F2154B08338C1053F824309343124CC9
:1007300008348D1044F8253023468C1053F82430AB
:100740008C07240F00FA04F423430B4C08348D105B
:1007500044F8253030BD0A49086070470008014060
:10076000000C01400010014000140140001801403D
:10077000001C014000200140000001400000204218
:10078000DC002042DB48006840F00100D9490860E5
:1007900008464068D8490840D6494860084600687D
:1007A000D6490840D34908600846006820F48020F4
:1007B00008600846406820F4FE0048604FF41F00BF
:1007C00088607047CB49096821F48031C94A1160BB
:1007D0001146096821F480211160B0F5803F03D0F3
:1007E000B0F5802F0ED106E0C249096841F480318E
:1007F000C04A116007E0BF49096841F4A021BD4A21
:10080000116000E000BF00BF704710B50146002234
:10081000002300204A11012A02D1B64C236806E0C9
:10082000022A02D1B34C236A01E0B24C636A01F0A0
:100830001F02012494401C4201D0012000E000204E
:1008400010BD70B500240025002600BF3120FFF741
:10085000DCFF0646641CB4F5A06F01D0002EF5D075
:100860003120FFF7D2FF08B1012500E0002528461E
:1008700070BD014600209F4A106820F0F80040EA51
:10088000C100106070479E49086070470246002012
:10089000984B586820F47C1042EA01031843954BAA
:1008A0005860704796490866704701460020914A93
:1008B000506820F003000843506070478D4840683E
:1008C00000F00C007047014600208A4A506820F072
:1008D000F00008435060704701460020854A506888
:1008E00020F4E06008435060704701460020814AD0
:1008F000506820F4605040EAC1005060704729B150
:100900007C4A527A02437B4B5A7204E0794A527A0B
:100910008243784B5A7270477A49086070470146A3
:100920000020744A506820F44040084350607047EB
:100930000021754A11706F4A82F82010012802D0F8
:10094000042808D103E001216F4A117004E0052159
:100950006D4A117000E000BF00BF70476B4908602E
:1009600070476449096A0143624A116270476749E6
:1009700044390860704730B500210022002400236C
:100980005C4D6D6805F00C0121B1042905D00829E2
:1009900023D105E05E4D056022E05D4D05601FE05E
:1009A000544D6D6805F47012524D6D6805F4803435
:1009B000022505EB92421CB9564D554305600BE0EC
:1009C0004C4D6D6815F4003F03D0524D5543056002
:1009D00002E04F4D5543056002E04D4D056000BFFC
:1009E00000BF444D6D6805F0F00109094A4D6B5C8C
:1009F0000568DD4045603F4D6D6805F4E061090A1A
:100A0000454D6B5C4568DD4085603A4D6D6805F489
:100A10006051C90A404D6B5C4568DD40C560354D8D
:100A20006D6805F44041890B3C4D6B5CC568B5FBB6
:100A3000F3F5056130BD29B12E4A526902432D4BB1
:100A40005A6104E02B4A526982432A4B5A6170472B
:100A500029B1284A92690243264B9A6104E0254A4B
:100A600092698243234B9A61704729B1214AD26926
:100A70000243204BDA6104E01E4AD26982431D4BD7
:100A8000DA61704729B11B4AD2680243194BDA6018
:100A900004E0184AD2688243164BDA60704729B1E5
:100AA000144A12690243134B1A6104E0114A126995
:100AB0008243104B1A6170471449403908607047EF
:100AC0000F49C86470470B49C87170470948406AAC
:100AD00040F0807007494862704701460020054A8F
:100AE00092680A4201D0012000E0002070470149CD
:100AF00088727047001002400000FFF8FFFFF6FE0A
:100B000000004242D800424220100240800442428B
:100B100000127A0000093D0014000020240000208B
:100B200001460020FE4A106800F0380008431060BB
:100B30007047FB49096821F00801F94A1160114624
:100B40000968014311607047F549096821F01001F7
:100B5000F34A116011460968014311607047F1487A
:100B6000EF494860F04848607047EE48EC494860FB
:100B7000ED4848607047EA48006940F08000E84965
:100B800008617047E648006940F08000E449086168
:100B900070470420E249C96811F0010F01D001201B
:100BA0000EE0DF49C96811F0040F01D0022007E010
:100BB000DB49C96811F0100F01D0032000E00420C8
:100BC000704700B502460423FFF7E3FF034603E046
:100BD000FFF7DFFF0346521E012B01D1002AF7D198
:100BE00002B90523184600BD30B5044604254FF46C
:100BF0003020FFF7E6FF0546042D17D1C8480069ED
:100C000040F00200C649086108464461006940F0AE
:100C1000400008614FF43020FFF7D3FF0546C0487D
:100C2000006941F6FD710840BD490861284630BDA4
:100C300010B504244FF43020FFF7C3FF0446042C02
:100C400016D1B748006940F00400B549086108466C
:100C5000006940F0400008614FF43020FFF7B1FF19
:100C60000446AF48006941F6FB710840AC49086191
:100C7000204610BD00B502460423FFF78AFF034655
:100C800003E0FFF786FF0346521E012B01D1002A25
:100C9000F7D102B90523184600BD10B504244FF45E
:100CA0003020FFF7E7FF0446042C16D19C4800696A
:100CB00040F004009A4908610846006940F040008D
:100CC00008614FF43020FFF7D5FF044694480069CF
:100CD00041F6FB71084092490861204610BD002092
:100CE0008F49C96911F0020F01D0012000E00020F6
:100CF000704730B5A5250424FFF7F1FF00B10025AA
:100D00004FF43020FFF75DFF0446042C3AD18548AC
:100D100083498860844888600846006940F0200064
:100D200008610846006940F0400008614FF4302037
:100D3000FFF747FF0446042C1BD17948006941F6B0
:100D4000DF710840764908610846006940F01000EC
:100D5000086176480580E002FFF733FF0446052C62
:100D600010D06F48006941F6EF7108406C49086186
:100D700008E0052C06D06A48006941F6EF7108408A
:100D800067490861204630BDF0B504460D4604268B
:100D90000027F002FFF715FF0646042E22D1604817
:100DA000006940F001005E4908612580F002FFF70C
:100DB00008FF0646042E0ED1A71C280C3880F0022E
:100DC000FFF7FFFE06465648006941F6FE710840EF
:100DD0005349086106E05248006941F6FE71084037
:100DE0004F4908613046F0BD70B504460D460426F3
:100DF000F002FFF7E6FE0646042E11D148480069CE
:100E000040F00100464908612580F002FFF7D9FE55
:100E100006464348006941F6FE71084040490861B2
:100E2000304670BD70B505460E460424E002FFF75B
:100E3000C8FE0446042C17D13A48394988603A481C
:100E400088600846006940F0100008612E80E002CA
:100E5000FFF7B7FE0446052C06D03148006941F67D
:100E6000EF7108402E490861204670BD2DE9F0431E
:100E700004464FF6FF763746B046B1460425E443B4
:100E8000E6B2C4F30727C4F307484FEA1469E8023F
:100E9000FFF797FE0546042D40D12248204988607F
:100EA000214888600846006940F010000861FF2E64
:100EB00006D01E4808300680E802FFF782FE05468D
:100EC000042D08D1FF2F06D018480A300780E80209
:100ED000FFF777FE0546042D0AD1B8F1FF0F07D0C2
:100EE00012480C30A0F80080E802FFF76AFE0546C1
:100EF000042D0AD1B9F1FF0F07D00C480E30A0F82D
:100F00000090E802FFF75DFE0546052D06D0044877
:100F1000006941F6EF71084001490861284607E081
:100F20000020024023016745AB89EFCD00F8FF1F89
:100F3000BDE8F08330B5054604244FF43020FFF7B8
:100F400040FE0446042C41D15E485F4988605F48FA
:100F500088600846006940F0200008610846006982
:100F600040F0400008614FF43020FFF72AFE0446AD
:100F7000042C22D15448006941F6DF7108405249DF
:100F800008610846006940F0100008611DB10020AA
:100F90004F49088002E0A5204D4908804FF43020D9
:100FA000FFF70FFE0446052C10D04748006941F6B4
:100FB000EF7108404449086108E0052C06D042481A
:100FC000006941F6DF7108403F490861204630BDA5
:100FD000F0B505460E46174604243A483A4988605B
:100FE0003A488860E002FFF7ECFD0446042C19D172
:100FF0003548006940F010003349086147F0F800B7
:10100000304328433249891C0880E002FFF7D9FDAC
:101010000446052C06D02C48006941F6EF710840C3
:10102000294908612046F0BD2748C06980087047FB
:101030002548006A704700202349096811F0200FF5
:1010400001D0012000E00020704729B11E4A12693A
:1010500002431D4B1A6104E01B4A126982431A4B7A
:101060001A61704701460020012908D1164AD26949
:1010700012F0010F01D0012008E0002006E0124A22
:10108000D2680A4201D0012000E0002070470E49DA
:10109000C860704704200C49C96811F0010F01D0E5
:1010A00001200EE00849C96811F0040F01D00220A8
:1010B00007E00549C96811F0100F01D0032000E0D6
:1010C000042070472301674500200240AB89EFCD23
:1010D00000F8FF1F10B50446F548844209D10121EC
:1010E0004805FFF7DCFC00214FF40010FFF7D7FCA8
:1010F00008E001218805FFF7D2FC00214FF48000B1
:10110000FFF7CDFC10BD2DE9F04385B004460D4638
:101110000026B1460427DFF89C83A6884FF6C070EE
:1011200006406846FFF727FCDDF80880E248B8FB78
:10113000F0F01FFA80F946EA0906A68020884FF6EB
:10114000FE71084020800026DC49286888420CD8BF
:1011500028684000B8FBF0F087B2042F00DA0427BB
:101160003E4309F10100208427E0E888A0F53F41D3
:10117000FF3906D1286800EB4000B8FBF0F087B2D9
:1011800009E0286800EBC00101EB0010B8FBF0F0AB
:1011900087B247F480473805000D01D147F00107B9
:1011A00047F4004006434FF4967009FB00F04FF4FB
:1011B0007A7190FBF1F0401C2084A683208840F0D7
:1011C0000100208026884FF6F5300640A8886989FE
:1011D000084306432680A88929890843208105B051
:1011E000BDE8F08341F288310160002181804BF637
:1011F000FF71C1800021018141814FF480418181D3
:10120000704721B1028842F00102028004E00288A6
:101210004FF6FE731A400280704721B1828842F473
:101220000062828004E082884FF2FF731A4082805D
:10123000704721B1828842F48052828004E0828823
:101240004EF6FF731A408280704721B1028842F443
:101250008072028004E002884FF6FF631A40028029
:10126000704721B1028842F40072028004E00288D3
:101270004FF6FF531A400280704721B1028842F4B2
:101280008062028004E002884FF6FF331A40028039
:1012900070470A46002181894FF60173194002F018
:1012A000FE0319438181704721B1828942F0010216
:1012B000828104E082894FF6FE731A408281704772
:1012C00021B1028842F04002028004E002884FF619
:1012D000BF731A40028070471AB183880B43838022
:1012E00002E083888B438380704701827047014608
:1012F000088AC0B2704712B141F0010102E04FF616
:10130000FE731940018270470246002313460B44C6
:101310001888704721B1028842F40042028003E03D
:101320000288C2F30E0202807047B1F5006F04D14B
:10133000028842F40062028004E002884FF2FF73E8
:101340001A4002807047B1F5005F04D1028842F470
:101350000052028004E002884DF6FF731A400280BA
:10136000704721B1028842F48052028004E0028872
:101370004EF6FF731A4002807047B1F5006F04D13A
:10138000028842F40062028004E002884FF2FF7398
:101390001A400280704721B1028842F02002028088
:1013A00004E002884FF6DF731A400280704701465E
:1013B000088B0012704721B1028842F010020280AF
:1013C00004E002884FF6EF731A400280704721B99B
:1013D000028842F08002028004E002884FF67F73A8
:1013E0001A4002807047B1F5804F05D0828B4BF6D2
:1013F000FF731A40828303E0828B42F4804282832F
:10140000704770B502460024002500230020958A0D
:10141000138B1B0445EA030626F07F4404EA010609
:101420008E4201D1012000E0002070BD10B50146C0
:101430000020002300228B8A0A8B120443EA020454
:1014400024F07F4010BD30B5034600200024002268
:101450001A460C0F21F07F410CB1143201E0090C47
:10146000183215680D4201D0012000E0002030BD87
:10147000002221F07F42D3438382704730B5024679
:1014800000200023948801F0E06504EA154321F070
:101490007F41948A0C4202D00BB1012000E0002071
:1014A00030BD002221F07F42D34383827047000089
:1014B0000054004000127A0040420F00A086010054
:1014C000002044490860091D0860091D0860091DC5
:1014D000086041483F4914310860704700213D4988
:1014E0008279002A3AD00A46126803689A430B466A
:1014F0001A600A1D126803689A430B1D1A6002796C
:1015000011440A6803681A430A60324A08321268B2
:1015100003689A432F4B08331A601A1D1268036838
:101520009A432C4B0C331A604279102A0ED11A1FA1
:10153000126803681A43274B08331A601A1D126891
:1015400003681A43234B0C331A600DE0214942799A
:1015500011440A6803681A430A6005E002791144DD
:101560000A6803689A430A607047002101600171AC
:101570000C214171002181717047164910310968B1
:101580000143144A10321160704701460020114A8D
:10159000143212680A4201D0012000E00020704796
:1015A0000C49143108607047014600200022094BA5
:1015B0001B6803EA0102074B14331B680B4202D07D
:1015C0000AB1012000E00020704702491431086090
:1015D0007047000000040140FFFF0F0009488047EA
:1015E00009480047FEE7FEE7FEE7FEE7FEE7FEE705
:1015F000FEE7FEE7FEE7FEE704480549054A064B1D
:101600007047000051020008ED0000089000002023
:101610009006002090020020900200204FF4FA7003
:1016200000F083F800F0A1F800F00AFB00F0E7F802
:1016300000F07AFB1BA1002000F0D6FB1EA10320C6
:1016400000F0D2FB00202149087000F088F800F07B
:1016500067FC00F03DFA23E01C48007800B300204E
:101660001A49087000F09EFC0446CCB118A106206F
:1016700000F0BAFB0A2094FBF0F0303085B22A4625
:101680004021062000F065FB0A2094FBF0F100FBEE
:101690001140303085B22A464821062000F059FB1F
:1016A000DAE70000202020596F756E6754616C6B7B
:1016B0002020202000000000204B45595041443498
:1016C00078342054455354200000000028000020A6
:1016D000204B4559204E4F2E202020202020202016
:1016E00000000000704700BFFEE700BFFEE700BF3C
:1016F000FEE700BFFEE7704770477047704700EB9A
:10170000C001C9004FF0E022516100219161052123
:10171000116100BF4FF0E021096911F4803FF9D059
:1017200004214FF0E0221161704700B5034603E049
:101730004FF47A70FFF7E3FF1800A3F101018BB2B9
:10174000F6D100BD10B5044603E04FF47A70FFF700
:10175000ECFF2000A4F101018CB2F6D110BD10B550
:101760004FF4A060FEF7F4FD10BD10B5FFF70AF8C6
:101770004FF48030FFF726F8FFF763F80446012C9A
:1017800024D14FF4E0110004FFF780F80020FFF7A8
:101790009AF8A002FFF7A0F80020FFF7A6F80220B1
:1017A000FFF7BEF91020FFF7CFF90120FFF77AF815
:1017B00000BF3920FFF729F80028FAD00220FFF7F0
:1017C00074F800BFFFF77AF80828FBD110BD0000BD
:1017D00008B501211C20FFF73BF901214805FFF75F
:1017E00044F9C020ADF800001C208DF80300032050
:1017F0008DF802006946B148FEF778FE08BD1FB5B6
:10180000FFF7E6FF0020ADF804004BF6FF70ADF8DF
:101810000600C020ADF808004FF48060ADF80A0063
:101820000001ADF80C00A64800906946A548FFF7F6
:101830006AFC0121A348FFF7E4FC1FBD2DE9F0413C
:1018400005460F4614461E4601219E48FFF7FDFC43
:1018500000BF9D499B48FFF7D4FD0028F9D0002226
:1018600029469848FFF747FD00BF98499548FFF77C
:10187000C8FD0028F9D039469248FFF736FD00BF71
:101880009249891C8F48FFF7BCFD0028F8D00CE076
:1018900021788C48FFF729FD641C00BF8B49891C07
:1018A0008848FFF7AEFD0028F8D03000A6F101010E
:1018B0008EB2EDD101218348FFF7D3FCBDE8F08162
:1018C00070B504460E46154601217E48FFF7BDFC63
:1018D00000BF7D497B48FFF794FD0028F9D0002226
:1018E00021467848FFF707FD00BF78497548FFF7A4
:1018F00088FD0028F9D031467248FFF7F6FC00BF9A
:101900007249891C6F48FFF77CFD0028F8D02946F2
:101910006C48FFF7EAFC00BF6C49891C6948FFF777
:1019200070FD0028F8D001216648FFF79AFC70BDD1
:101930002DE9F04106460F4615461C4600BF4FF400
:1019400000316048FFF77FFD0028F8D101215D4894
:10195000FFF77BFC00BF5C495A48FFF752FD0028A7
:10196000F9D0002231465748FFF7C5FC00BF574960
:101970005448FFF746FD0028F9D001215148FFF7F0
:1019800040FC39464F48FFF7B0FC00BF4F49891C67
:101990004C48FFF736FD0028F8D001214948FFF7F1
:1019A00054FC00BF48494748FFF72BFD0028F9D0F9
:1019B000012231464348FFF79EFC00BF4249491CC3
:1019C0004048FFF71EFD0028F8D016E0012C07D193
:1019D00000213C48FFF751FC01213A48FFF741FC48
:1019E00039493F313748FFF70CFD30B13548FFF733
:1019F0007EFC28706D1C601E84B2002CE6D1012193
:101A00003048FFF73AFCBDE8F08170B504460D465A
:101A100000BF4FF400312B48FFF715FD0028F8D127
:101A200001212848FFF711FC00BF27492548FFF78F
:101A3000E8FC0028F9D0002221462248FFF75BFC91
:101A400000BF22491F48FFF7DCFC0028F9D0012124
:101A50001C48FFF7D6FB29461A48FFF746FC00BF93
:101A60001A49891C1748FFF7CCFC0028F8D001213F
:101A70001448FFF7EAFB00BF13491248FFF7C1FC07
:101A80000028F9D0012221460E48FFF734FC00BFA0
:101A90000D49491C0B48FFF7B4FC0028F8D0002181
:101AA0000848FFF7EAFB01210648FFF7DAFB054883
:101AB000FFF71DFC0646304670BD0000000C0140DB
:101AC000400D0300005400400100030082000700A5
:101AD0000EB501210420FEF7BBFF01210846FEF7E9
:101AE000B7FF04210020FEF715FE10200090012012
:101AF0008DF8060000208DF804000C208DF80500FC
:101B00006846FFF7EBFC0A208DF8080001208DF8ED
:101B10000B0002208DF809008DF80A0002A8FEF7DC
:101B20001CFC05210020FEF7F5FD2020009001207F
:101B30008DF8060000208DF804000C208DF80500BB
:101B40006846FFF7CBFC17208DF8080001208DF8C0
:101B50000B0002208DF809008DF80A0002A8FEF79C
:101B6000FCFB06210020FEF7D5FD4020009001205F
:101B70008DF8060000208DF804000C208DF805007B
:101B80006846FFF7ABFC17208DF8080001208DF8A0
:101B90000B0002208DF809008DF80A0002A8FEF75C
:101BA000DCFB07210020FEF7B5FD8020009001201E
:101BB0008DF8060000208DF804000C208DF805003B
:101BC0006846FFF78BFC17208DF8080001208DF880
:101BD0000B0002208DF809008DF80A0002A8FEF71C
:101BE000BCFB0EBD10B51020FFF7DEFC28B10120B4
:101BF000124908701020FFF7E8FC10BD10B5202036
:101C0000FFF7D2FC28B102200C4908702020FFF712
:101C1000DCFC4020FFF7C8FC28B10320074908700E
:101C20004020FFF7D2FC8020FFF7BEFC28B1042043
:101C3000024908708020FFF7C8FC10BD2800002072
:101C400008B501217C20FEF703FF01210846FEF7BD
:101C5000FFFE4FF4C040ADF8000010208DF80300E7
:101C600003208DF8020069460F48FEF73FFC012172
:101C70000E48FEF70AFD4FF4C0410B48FEF7E3FCA7
:101C800008BD10B5044622464FF480410648FEF7D1
:101C9000DCFC10BD10B5044622464FF4005102484A
:101CA000FEF7D3FC10BD0000000801400004300026
:101CB00000B587B01C228FA1684600F01BFA1C23D8
:101CC0006A4600217820FFF7B9FD07B000BD70B566
:101CD000B0241BE0224600217820FFF7F1FD1022FE
:101CE00000217820FFF7ECFD002211467820FFF755
:101CF000E7FD002506E0002240217820FFF7E0FD07
:101D0000681CC5B2842DF6DB601CC4B2B82CE1DBC4
:101D100070BD08B57EA00068009003236A460021CC
:101D20007820FFF78BFD08BD10B5FFF7F2FFFFF736
:101D3000CEFFFFF7BDFF10BD10B504468122002184
:101D40007820FFF7BDFD224600217820FFF7B8FD7F
:101D500010BD2DE9F04705460C4616464FF0000A27
:101D6000A01CC4B2D1463AE005F1B000C2B20021D5
:101D70007820FFF7A5FD2746E01704EB107000114F
:101D800000F1100200217820FFF79AFDE01704EB24
:101D900010700011A4EB0010C2B200217820FFF7F0
:101DA0008FFD4FF0000811E00AEB0610A0F500705F
:101DB00058490A5C40217820FFF782FD0AF10100B2
:101DC00000F0FF0A08F1010000F0FF08B8F1080F69
:101DD000EADB681CC5B209F1010000F0FF09B9F1A6
:101DE000020FC1DBBDE8F08770B506460C46002542
:101DF00008E014F8012BE806010E3046FFF7A9FFB2
:101E0000681CC5B220780028F3D170BD2DE9F047D9
:101E100005460C4616464FF0000AD14638E005F15B
:101E2000B000C2B200217820FFF74AFD2746E01734
:101E300004EB1070001100F1100200217820FFF770
:101E40003FFDE01704EB10700011A4EB0010C2B2CC
:101E500000217820FFF734FD4FF000080FE00AEB77
:101E600046102D490A5C40217820FFF729FD0AF130
:101E7000010000F0FF0A08F1010000F0FF08B8F1CE
:101E8000100FECDB681CC5B209F1010000F0FF097E
:101E9000B9F1020FC3DBAF2200217820FFF710FD5C
:101EA000BDE8F08770B5002420E004F1B000C2B2B4
:101EB00000217820FFF704FD102200217820FFF791
:101EC000FFFC022200217820FFF7FAFC002509E040
:101ED00005EBC41011490A5C40217820FFF7F0FCA3
:101EE000681CC5B2802DF3DB601CC4B2082CDCDB9F
:101EF00070BD0000AE0010D580A83FD300B0408D6B
:101F000014A1C8DA1281FFD9F1DB302000A4A6AFFA
:101F1000AE8D1000CA210008CA2700084A28000810
:101F200008B5F020ADF8000048208DF803006946A0
:101F30006F48FEF7DBFA0F20ADF8000010208DF897
:101F4000030003208DF8020069466948FEF7CEFAC7
:101F50000F216748FEF777FBF0216548FEF771FB1C
:101F600008BD08B50F20ADF8000048208DF803002B
:101F700069465F48FEF7BAFAF020ADF8000010207D
:101F80008DF8030003208DF8020069465848FEF7DB
:101F9000ADFA0F215648FEF754FBF0215448FEF7E6
:101FA00052FB08BD70B500250024FFF7B9FF1021D2
:101FB0004F48FEF72CFB78B120214D48FEF727FB58
:101FC00050B140214A48FEF722FB28B18021484801
:101FD000FEF71DFB00287DD11420FFF7A6FB102182
:101FE0004348FEF714FB70B120214148FEF70FFB78
:101FF00048B140213E48FEF70AFB20B180213C4811
:10200000FEF705FB18B93A48FEF70AFBC5B2FFF721
:10201000A8FF3748FEF704FBC4B22543D72D31D0C3
:1020200012DCB72D36D008DC772D3BD07B2D37D096
:102030007D2D33D07E2D37D12EE0BB2D28D0BD2D68
:1020400024D0BE2D30D11FE0E72D13D006DCDB2DD0
:1020500016D0DD2D12D0DE2D26D10DE0EB2D07D0D0
:10206000ED2D03D0EE2D1FD110241FE00F241DE015
:102070000E241BE00D2419E00C2417E00B2415E0BE
:102080000A2413E0092411E008240FE007240DE0DE
:1020900006240BE0052409E0042407E0032405E0FE
:1020A000022403E0012401E0002400BF00BF00BFC0
:1020B00001210F48FEF7ABFA0028F9D002210C48A5
:1020C000FEF7A5FA0028F3D004210948FEF79FFA8D
:1020D000002800E009E0EBD008210548FEF797FA58
:1020E0000028E5D01420FFF720FB204670BD00003B
:1020F0000008014010B5203AC0F00B80B1E818503C
:10210000203AA0E81850B1E81850A0E81850BFF4E1
:10211000F5AF5FEA027C24BFB1E81850A0E8185080
:1021200044BF18C918C0BDE810405FEA827C24BFD4
:1021300051F8043B40F8043B08BF7047D20728BF62
:1021400031F8023B48BF11F8012B28BF20F8023BB1
:1021500048BF00F8012B70477047704770477546BD
:1021600000F028F8AE4605006946534620F0070007
:10217000854618B020B5FFF73FFABDE820404FF084
:1021800000064FF000074FF000084FF0000B21F061
:102190000701AC46ACE8C009ACE8C009ACE8C0092E
:1021A000ACE8C0098D4670470446AFF30080204676
:1021B000FDF7E3FF004870472C000020014918207C
:1021C000ABBEFEE7260002007047000000000000E2
:1021D00000000000000000000000000038FCFC3897
:1021E00000000000000D0D000000000E1E00001E8B
:1021F0000E00000000000000000020F8F820F8F8B1
:102200002000020F0F020F0F0200387C444747CC1A
:1022100098000306041C1C07030030300080C060D7
:1022200030000C060301000C0C0080D87CE4BCD804
:102230004000070F0808070F080000101E0E0000DE
:10224000000000000000000000000000F0F80C0496
:102250000000000003070C0800000000040CF8F068
:1022600000000000080C0703000080A0E0C0C0E0F0
:10227000A0800002030101030200008080E0E080F2
:1022800080000000000303000000000000000000C8
:1022900000000000101E0E00000080808080808002
:1022A00080000000000000000000000000000000AE
:1022B00000000000000C0C00000000000080C06066
:1022C00030000C06030100000000F8FC04C424FCEC
:1022D000F800070F0908080F0700001018FCFC00A1
:1022E00000000008080F0F080800080C84C4643CB4
:1022F00018000E0F0908080C0C00080C444444FC9C
:10230000B800040C0808080F0700C0E0B098FCFCF7
:102310008000000000080F0F08007C7C4444C4C407
:102320008400040C0808080F0700F0F84C4444C06F
:102330008000070F0808080F07000C0C0484C47CF9
:102340003C0000000F0F00000000B8FC444444FCB7
:10235000B800070F0808080F0700387C444444FC05
:10236000F800000808080C070300000000303000E7
:1023700000000000000606000000000000303000F1
:1023800000000000080E060000000080C060301849
:10239000080000000103060C080040404040404097
:1023A000400002020202020202000008183060C06F
:1023B000800000080C0603010000181C04C4E43C63
:1023C00018000000000D0D000000F0F808C8C8F863
:1023D000F000070F080B0B0B0100E0F0988C98F051
:1023E000E0000F0F0000000F0F0004FCFC4444FC51
:1023F000B800080F0F08080F0700F0F80C04040CD1
:10240000180003070C08080C060004FCFC040CF878
:10241000F000080F0F080C07030004FCFC44E40C58
:102420001C00080F0F08080C0E0004FCFC44E40C10
:102430001C00080F0F0800000000F0F80C84848CCA
:10244000980003070C0808070F00FCFC404040FC04
:10245000FC000F0F0000000F0F00000004FCFC0444
:1024600000000000080F0F08000000000004FCFC42
:102470000400070F08080F07000004FCFCC0F03C34
:102480000C00080F0F00010F0E0004FCFC040000FC
:102490000000080F0F08080C0E00FCFC387038FC18
:1024A000FC000F0F0000000F0F00FCFC3870E0FC78
:1024B000FC000F0F0000000F0F00F0F80C040CF8E8
:1024C000F00003070C080C07030004FCFC44447CE8
:1024D0003800080F0F0800000000F8FC040404FC9A
:1024E000F800070F080E3C3F270004FCFC44C4FC26
:1024F0003800080F0F00000F0F00183C6444C49C04
:102500001800060E0808080F0700001C0CFCFC0C45
:102510001C000000080F0F080000FCFC000000FC7D
:10252000FC00070F0808080F0700FCFC000000FC77
:10253000FC000103060C06030100FCFC008000FC0B
:10254000FC00030F0E030E0F03000C3CF0C0F03C28
:102550000C000C0F0300030F0C00003C7CC0C07C7F
:102560003C000000080F0F0800001C0C84C4643CF1
:102570001C000E0F0908080C0E000000FCFC0404EF
:10258000000000000F0F080800003870E0C0800055
:1025900000000000000103070E0000000404FCFC22
:1025A0000000000008080F0F0000080C0603060CCE
:1025B0000800000000000000000000000000000013
:1025C00000002020202020202020000003070400FD
:1025D0000000000000000000000000A0A0A0E0C07B
:1025E0000000070F0808070F080004FCFC2060C06B
:1025F0008000080F0708080F0700C0E020202060B7
:102600004000070F0808080C040080C06024FCFC90
:102610000000070F0808070F0800C0E0A0A0A0E016
:10262000C000070F0808080C040040F8FC440C1810
:102630000000080F0F0800000000C0E02020C0E0EC
:102640002000276F48487F3F000004FCFC4020E04A
:10265000C000080F0F00000F0F00000020ECEC007E
:1026600000000000080F0F0800000000000020EC30
:10267000EC0000307040407F3F0004FCFC80C060F4
:102680002000080F0F01030E0C00000004FCFC00EA
:1026900000000000080F0F080000E0E060C060E0EC
:1026A000C0000F0F000F000F0F0020E0C02020E03F
:1026B000C000000F0F00000F0F00C0E0202020E03E
:1026C000C000070F0808080F070020E0C02020E026
:1026D000C000407F7F48080F0700C0E02020C0E016
:1026E0002000070F08487F7F400020E0C060206086
:1026F000C000080F0F080000000040E0A02020608C
:102700004000040C09090B0E04002020F8FC2020D6
:1027100000000000070F080C0400E0E00000E0E00B
:102720000000070F0808070F080000E0E00000E0C5
:10273000E0000003070C0C070300E0E0000000E0ED
:10274000E000070F0C070C0F07002060C080C0607E
:102750002000080C0703070C0800E0E0000000E080
:10276000E000474F4848683F1F00606020A0E060DD
:1027700020000C0E0B09080C0C00004040F8BC04B3
:102780000400000000070F080800000000BCBC00A7
:1027900000000000000F0F000000000404BCF8401F
:1027A00040000008080F07000000080C040C080C8B
:1027B0000400000000000000000080C0603060C025
:1027C000800007070404040707001022640C800837
:1027D000494A4CF84C4A490800000404FE0104042C
:1027E000040404FF0404040604001010D0FF5090F9
:1027F0002040FF00FF4020300000040300FF804421
:10280000221907003F414640700000F848484848F8
:10281000FF48484848FC0800000000070202020286
:102820003F42424242474070000080808282828262
:1028300082E2A2928A8680C08000000000000040F0
:10284000807F000000000000000000000000000089
:102850000000000000000000000000000000000078
:102860000000000000000000000000000000000068
:102870000000000000000000000000000000000058
:102880000000000000000000000000000000000048
:102890000000000000000000000000000000000038
:1028A0000000000000000000000000000000000028
:1028B0000000000000000000000000000000000018
:1028C0000000000000000000000000000000000008
:1028D00000000000000000000000000000000000F8
:1028E000000000F8FC1C3830381CFCF800F8F80038
:1028F000F8F8000000F8FC8C8C8C0080D050F0E0E0
:1029000000F0F02030000080800080800080800097
:10291000000C1224120C00000000000000008000D7
:10292000000000000000182444884424180000001F
:102930000000000000000000000000000000000097
:102940000000000000000000000000000000000087
:102950000000000000000000000000000000000077
:1029600000000003838000808000030300080B0B3D
:102970000F07804080408303030300000303030329
:1029800000038380808080C3C3C0C3C3C0C3C3C0EF
:10299000C0C0C0C0808080C0C040201804030000B8
:1029A0000000002050A050200000000000000000A7
:1029B0000000000000000000000000000000000017
:1029C0000000000000000000000000000000000007
:1029D00000000000000000000000000000000000F7
:1029E00000000003040811080403000000000000B8
:1029F0000000010284C2E160301078ECFCF63A1B62
:102A0000058597131213131111111111110181FF73
:102A1000F9F9F2C2822225058D8B93B3E6C68C1C90
:102A200018387070E0C080000000000000182448D2
:102A3000241800000000000000000000000000005A
:102A40000000000000000000000000000000000086
:102A50000000000000000000000000000000000076
:102A60000000000080E0E0703018181C1C1C0C1CDA
:102A70001616160627636DAECE0E0E0F0F0F0E063E
:102A800006070706060606060606060606667767B2
:102A900067E7070707060606070787C767232312A6
:102AA00010000808090B0F0E0E0C3C70F0C08000DF
:102AB0000000000000000000000000000000000016
:102AC0000000000000000000000000000000000006
:102AD00000000000000000000000000000000000F6
:102AE000F0F8DEFFF63611E0F0F8FCFEDE1E3F3FA8
:102AF0001EFEFEFCF8F2E4080107FC0000000000E6
:102B000000000000000000000000000000000000C5
:102B100000FF00000000003CFFE7311CE6FFFFFF64
:102B2000FEFE1F3F3F1FFFFEFEFCF8F8F031FBFFEB
:102B3000FEFC380000000000000000000000000063
:102B40000000000000000000000000000000000085
:102B50000000000000000000000000000000000075
:102B60000003074F4C60607F7F7F7F7D4D44727212
:102B700040797D7F7F7F7F7C707073737070747419
:102B800074747474747474747474767676767676F9
:102B900076737070727272737070707C7F7F7F7FDB
:102BA0007D7D62727260687D7F7F7F7F77746767EB
:102BB00063000000000000000000000000000000B2
:102BC0000000000000000000000000000000000005
:102BD00000000000000000000000000000000000F5
:102BE00000000000000000000000000000000000E5
:102BF00000000000000000000000000000000000D5
:102C000000000000000000000000000000000000C4
:102C100000000000000000000000000000000000B4
:102C200000000000000000000000000000000000A4
:102C30000000000000000000000000000000000094
:102C40000000000000000000000000006C2C0008E4
:102C5000000000202C00000028010008982C00082B
:102C60002C000020640600004401000800A24A0471
:102C7000000000000000000001020304060708092C
:102C80000000000001020304010203040607080912
:082C9000020406080000000028
:04000005080000ED02
:00000001FF
