:020000040800F2
:10000000580700208915000801160008031600088B
:10001000071600080B1600080F1600080000000065
:10002000000000000000000000000000131600089F
:100030001516000800000000171600081916000821
:10004000A3150008A3150008A3150008A3150008B0
:10005000A3150008A3150008A3150008A3150008A0
:10006000A3150008A3150008A3150008A315000890
:10007000A3150008A3150008A3150008A315000880
:10008000A3150008A3150008A3150008A315000870
:10009000A3150008A3150008A3150008A315000860
:1000A000A3150008A3150008A3150008A315000850
:1000B000A3150008A3150008A3150008A315000840
:1000C000A3150008A3150008A3150008A315000830
:1000D000A3150008F3170008A3150008A3150008CE
:1000E000A3150008A3150008A315000800F002F8E6
:1000F00000F090F80AA090E8000C82448344AAF132
:100100000107DA4501D100F085F8AFF2090EBAE82F
:100110000F0013F0010F18BFFB1A43F0010318473B
:10012000F02E0000102F0000103A24BF78C878C1CC
:10013000FAD8520724BF30C830C144BF04680C60ED
:10014000704700000023002400250026103A28BF35
:1001500078C1FBD8520728BF30C148BF0B60704739
:100160006E2901F0A185702901F01A87662902F035
:10017000E186652902F0DE86672902F0DB866129C7
:10018000AFF3008003681B0A28BF41F08001692992
:1001900001F0CE83642901F0CB83752901F0C88377
:1001A0006F2901F0A586782901F0E686E92901F09A
:1001B0003D86E42901F03A86F52901F03786EF29DA
:1001C00001F0A286F82901F0E5860368DB0928BF63
:1001D00041F08001632901F0AC85732901F0B185FC
:1001E000E32902F04881F32902F04D810020704795
:1001F0001FB502F09DF904000020002102F084FEEA
:10020000401C60600020002102F068FEE0601FBD1D
:1002100010B510BD02F05FF91146FFF7E9FF01F0DC
:10022000D3F902F03BFA03B4FFF7F2FF03BC01F08D
:100230005DFA000000210020674A126842F4803213
:10024000654B1A6000BF644A126802F40030491C12
:1002500010B9B1F5A06FF6D15F4A126812F4003FF1
:1002600001D0012000E00020012842D15B4A126841
:1002700042F01002594B1A601A46126822F003022B
:100280001A601A46126842F002021A60524A526814
:10029000514B5A601A4652685A601A46526842F4E4
:1002A00080625A601A46526822F47C125A601A46DA
:1002B000526842F4E8125A601A46126842F080729C
:1002C0001A6000BF444A126812F0007FFAD0424A16
:1002D000526822F00302404B5A601A46526842F0BC
:1002E00002025A6000BF3C4A526802F00C02082A1F
:1002F000F9D1704710B5FFF79DFF10BD10B5364816
:10030000006840F0010034490860084640683449FC
:1003100008403149486008460068324908402E4983
:1003200008600846006820F480200860084640689D
:1003300020F4FE0048604FF41F008860FFF7DAFFEA
:100340004FF000602849086010BD10B50021002062
:100350000022214B5B6803F00C0121B1042906D077
:10036000082928D107E0214B214C236027E01F4BAF
:100370001F4C236023E0184B5B6803F47010164B8E
:100380005B6803F48032022303EB904022B9194BDF
:100390004343174C23600DE00F4B5B6813F4003FA1
:1003A00004D0144B4343124C236003E00F4B4343F0
:1003B0000F4C236003E00D4B0D4C236000BF00BFCA
:1003C000054B5B68C3F303130B4CE15C084B1B68E4
:1003D000CB40074C236010BD0010024000200240BB
:1003E0000000FFF8FFFFF6FE08ED00E000127A00C3
:1003F0000000002000093D000400002031490143B5
:10040000314A1160704770B5002100230F22C47873
:100410000CB32D4C246804F4E064C4F5E064210AB4
:10042000C1F10403CA40447804FA03F1847814400B
:1004300021430901254C0678A155047804F01F05D5
:100440000124AC4005786D114FF0E02606EB8505E0
:10045000C5F8004109E0047804F01F050124AC4010
:100460001B4D0678761145F8264070BD194A0A40A2
:100470000243154B1B1F1A60704739B1124A121DF7
:1004800012680243104B1B1D1A6006E00E4A121D33
:10049000126882430C4B1B1D1A607047042808D158
:1004A0004FF0E021096941F004014FF0E0221161B1
:1004B00007E04FF0E021096921F004014FF0E0224C
:1004C000116170470000FA050CED00E000E400E067
:1004D00080E100E080FFFF1F10B50446CA48844257
:1004E00008D10121042000F023FB0021042000F0AA
:1004F0001FFB46E0C548844208D10121082000F0D6
:1005000017FB0021082000F013FB3AE0C0488442AA
:1005100008D10121102000F00BFB0021102000F079
:1005200007FB2EE0BB48844208D10121202000F0C7
:10053000FFFA0021202000F0FBFA22E0B6488442B6
:1005400008D10121402000F0F3FA0021402000F002
:10055000EFFA16E0B148844208D10121802000F072
:10056000E7FA0021802000F0E3FA0AE0AC48844278
:1005700007D10121801500F0DBFA0021A01500F061
:10058000D7FA10BD10B50121084600F0D1FA0021BC
:10059000012000F0CDFA10BD2DE9F0410246002502
:1005A0000026002000230024002791F803C00CF04F
:1005B0000F0591F803C01CF0100F03D091F802C092
:1005C0004CEA050591F800C0BCF1000F31D0146869
:1005D00000202BE04FF0010C0CFA00F3B1F800C042
:1005E0000CEA03069E4220D183004FF00F0C0CFA58
:1005F00003F7BC4305FA03FC4CEA040491F803C07A
:10060000BCF1280F06D14FF0010C0CFA00FCC2F827
:1006100014C00AE091F803C0BCF1480F05D14FF0B7
:10062000010C0CFA00FCC2F810C0401C0828D1D301
:100630001460B1F800C0BCF1FF0F34DD5468002035
:100640002EE000F1080C4FF0010808FA0CF3B1F8A5
:1006500000C00CEA03069E4221D183004FF00F0C2C
:100660000CFA03F7BC4305FA03FC4CEA040491F8C6
:1006700003C0BCF1280F05D100F1080C08FA0CF8F2
:10068000C2F8148091F803C0BCF1480F07D100F103
:10069000080C4FF0010808FA0CF8C2F81080401C52
:1006A0000828CED35460BDE8F0814FF6FF71018079
:1006B000022181700421C1707047024600209368B6
:1006C0000B4201D0012000E00020704701468868FD
:1006D00080B2704702460020D3680B4201D001204F
:1006E00000E0002070470146C86880B27047016191
:1006F0007047416170470AB1016100E04161704794
:10070000C16070474FF480320A4382618161826127
:1007100082698269704702460020424B18684FF692
:100720008073184040EA021008433E4B186070473F
:100730003D49C8617047F0B50A46002300240021F6
:10074000002500F00046B6F1004F02D1354EF169A8
:1007500001E0344E7168C0F3034583B200F44016E3
:10076000B6F5401F08D121F070612E4E766826F054
:1007700070662C4F7E6012E000F48016B6F5801F84
:1007800006D1032606FA05F4A14341F0706106E0A4
:10079000460D360103FA06F6B14341F0706122B10D
:1007A000460D360103FA06F6314300F00046B6F175
:1007B000004F02D11B4EF16101E01A4E7160F0BD95
:1007C00030B500228B071C0F0F2303FA04F2154BE0
:1007D00008338C1053F824309343124C08348D1096
:1007E00044F8253023468C1053F824308C07240F0E
:1007F00000FA04F423430B4C08348D1044F82530E0
:1008000030BD0A490860704700080140000C0140F3
:10081000001001400014014000180140001C01407C
:10082000002001400000014000002042DC00204286
:10083000DB48006840F00100D9490860084640687C
:10084000D8490840D649486008460068D64908405B
:10085000D34908600846006820F4802008600846F4
:10086000406820F4FE0048604FF41F008860704725
:10087000CB49096821F48031C94A116011460968E1
:1008800021F480211160B0F5803F03D0B0F5802FB6
:100890000ED106E0C249096841F48031C04A1160B6
:1008A00007E0BF49096841F4A021BD4A116000E09A
:1008B00000BF00BF704710B5014600220023002092
:1008C0004A11012A02D1B64C236806E0022A02D15D
:1008D000B34C236A01E0B24C636A01F01F020124A9
:1008E00094401C4201D0012000E0002010BD70B5F2
:1008F00000240025002600BF3120FFF7DCFF06465C
:10090000641CB4F5A06F01D0002EF5D03120FFF7A4
:10091000D2FF08B1012500E00025284670BD014640
:1009200000209F4A106820F0F80040EAC1001060E3
:1009300070479E490860704702460020984B5868EF
:1009400020F47C1042EA01031843954B586070472D
:1009500096490866704701460020914A506820F089
:1009600003000843506070478D48406800F00C0059
:100970007047014600208A4A506820F0F000084382
:100980005060704701460020854A506820F4E060BE
:1009900008435060704701460020814A506820F4A7
:1009A000605040EAC1005060704729B17C4A527AD9
:1009B00002437B4B5A7204E0794A527A8243784B65
:1009C0005A7270477A490860704701460020744A9D
:1009D000506820F440400843506070470021754A39
:1009E00011706F4A82F82010012802D0042808D123
:1009F00003E001216F4A117004E005216D4A117076
:100A000000E000BF00BF70476B4908607047644951
:100A1000096A0143624A11627047674944390860B4
:100A2000704730B500210022002400235C4D6D6822
:100A300005F00C0121B1042905D0082923D105E0D6
:100A40005E4D056022E05D4D05601FE0544D6D6810
:100A500005F47012524D6D6805F48034022505EBE3
:100A600092421CB9564D554305600BE04C4D6D68E4
:100A700015F4003F03D0524D5543056002E04F4D41
:100A80005543056002E04D4D056000BF00BF444D79
:100A90006D6805F0F00109094A4D6B5C0568DD40A1
:100AA00045603F4D6D6805F4E061090A454D6B5C9A
:100AB0004568DD4085603A4D6D6805F46051C90AAE
:100AC000404D6B5C4568DD40C560354D6D6805F493
:100AD0004041890B3C4D6B5CC568B5FBF3F5056186
:100AE00030BD29B12E4A526902432D4B5A6104E0B0
:100AF0002B4A526982432A4B5A61704729B1284ACE
:100B000092690243264B9A6104E0254A9269824326
:100B1000234B9A61704729B1214AD2690243204B85
:100B2000DA6104E01E4AD26982431D4BDA617047E4
:100B300029B11B4AD2680243194BDA6004E0184A13
:100B4000D2688243164BDA60704729B1144A1269A1
:100B50000243134B1A6104E0114A12698243104B9D
:100B60001A61704714494039086070470F49C864DA
:100B700070470B49C87170470948406A40F080705F
:100B800007494862704701460020054A92680A42B8
:100B900001D0012000E000207047014988727047B1
:100BA000001002400000FFF8FFFFF6FE0000424286
:100BB000D8004242201002408004424200127A00D3
:100BC00000093D00140000202400002010B5044658
:100BD000FB48844209D101218803FFF7A9FF0021C6
:100BE0004FF48040FFF7A4FF32E0F648844209D179
:100BF00001214804FFF7A9FF00214FF40030FFF75F
:100C0000A4FF25E0F048844209D101218804FFF7C0
:100C10009CFF00214FF48020FFF797FF18E0EB487E
:100C2000844209D10121C804FFF78FFF00214FF44E
:100C30000020FFF78AFF0BE0E548844208D101213C
:100C40000805FFF782FF00214FF48010FFF77DFFBA
:100C500010BD2DE9F04786B005460E460024A24699
:100C600000BFA1460027B08900B100BF2F462C8AE3
:100C70004CF6FF700440F08804432C82AC894EF699
:100C8000F3100440B0883189084371890843044354
:100C9000AC81AC8A4FF6FF400440B0890443AC827B
:100CA00001A8FFF7BEFEC648874202D1DDF810A0BA
:100CB00001E0DDF80CA0A88910F4004F08D00AEB81
:100CC000CA0000EB0A1031684900B0FBF1F807E0F8
:100CD0000AEBCA0000EB0A1031688900B0FBF1F89A
:100CE0006420B8FBF0F004012009642101FB1089A5
:100CF000A88910F4004F08D0322000EBC900B0FBE7
:100D0000F1F000F00700044308E0322000EB091086
:100D10006421B0FBF1F000F00F0004432C8106B019
:100D2000BDE8F0874FF41651016000218180C18039
:100D300001810C21418100218181704710B502465B
:100D40000020108A4FF2FF0318400B884C88234381
:100D50008C882343CC8823431843108210BD002184
:100D6000018041808180C180704721B1828942F435
:100D70000052828104E082894DF6FF731A4082811D
:100D80007047F0B503460024002600250020A1F599
:100D900010676A3F00D100BF1846C1F3421401F04A
:100DA0001F06012707FA06F5012C01D10C3004E0DB
:100DB000022C01D1103000E014301AB107682F4323
:100DC000076002E00768AF430760F0BD1AB1838A8D
:100DD0000B43838202E0838A8B4383827047028ABB
:100DE0004FF6F0731A400282028A0A430282704769
:100DF00082894FF2FF731A40828182890A4382817D
:100E0000704721B1828942F00202828104E0828926
:100E10004FF6FD731A4082817047028A4FF6DF73E6
:100E20001A400282028A0A430282704721B1028A72
:100E300042F48042028204E0028A4BF6FF731A40B9
:100E400002827047C1F30802828070470146888899
:100E5000C0F308007047818941F00101818170472A
:100E6000028BD2B20283028B42EA012202837047D4
:100E7000028B02F47F420283028B0A430283704793
:100E800021B1828A42F02002828204E0828A4FF6F7
:100E9000DF731A408282704721B1828A42F01002C9
:100EA000828204E0828A4FF6EF731A408282704792
:100EB00021B1828A42F00802828204E0828A4FF6DF
:100EC000F7731A408282704721B1828942F400424E
:100ED000828103E08289C2F30E028281704721B1D0
:100EE000828A42F40062828204E0828A4FF2FF73B7
:100EF0001A4082827047828A4FF6FB731A408282C0
:100F0000828A0A438282704721B1828A42F00202B9
:100F1000828204E0828A4FF6FD731A408282704713
:100F200002460020B1F5007F00D100BF13880B42BC
:100F300001D0012000E00020704701F40072B2F5FA
:100F4000007F00D100BFCA430280704770B50246DF
:100F50000024002300250020A1F510666A3E00D180
:100F600000BFC1F3421501F01F03012606FA03F387
:100F7000012D02D19689334006E0022D02D1168A56
:100F8000334001E0968A33400C12012606FA04F43D
:100F90001688344013B10CB1012000E0002070BD70
:100FA00010B500220023A1F510646A3C00D100BFF7
:100FB0000A1201249440A3B2DC43048010BD000057
:100FC000003801400044004000480040004C004010
:100FD0000050004001460020FE4A106800F0380032
:100FE000084310607047FB49096821F00801F94A7D
:100FF000116011460968014311607047F54909689D
:1010000021F01001F34A1160114609680143116093
:101010007047F148EF494860F04848607047EE4833
:10102000EC494860ED4848607047EA48006940F084
:101030008000E84908617047E648006940F0800098
:10104000E449086170470420E249C96811F0010FC2
:1010500001D001200EE0DF49C96811F0040F01D072
:10106000022007E0DB49C96811F0100F01D003200E
:1010700000E00420704700B502460423FFF7E3FFB9
:10108000034603E0FFF7DFFF0346521E012B01D1A9
:10109000002AF7D102B90523184600BD30B5044631
:1010A00004254FF43020FFF7E6FF0546042D17D145
:1010B000C848006940F00200C6490861084644611A
:1010C000006940F0400008614FF43020FFF7D3FF83
:1010D0000546C048006941F6FD710840BD490861F8
:1010E000284630BD10B504244FF43020FFF7C3FF6D
:1010F0000446042C16D1B748006940F00400B549F5
:1011000008610846006940F0400008614FF4302053
:10111000FFF7B1FF0446AF48006941F6FB71084094
:10112000AC490861204610BD00B502460423FFF714
:101130008AFF034603E0FFF786FF0346521E012B9A
:1011400001D1002AF7D102B90523184600BD10B518
:1011500004244FF43020FFF7E7FF0446042C16D197
:101160009C48006940F004009A49086108460069FB
:1011700040F0400008614FF43020FFF7D5FF0446EF
:101180009448006941F6FB71084092490861204685
:1011900010BD00208F49C96911F0020F01D0012054
:1011A00000E00020704730B5A5250424FFF7F1FFCB
:1011B00000B100254FF43020FFF75DFF0446042CFA
:1011C0003AD1854883498860844888600846006928
:1011D00040F0200008610846006940F040000861C6
:1011E0004FF43020FFF747FF0446042C1BD1794809
:1011F000006941F6DF7108407649086108460069D8
:1012000040F01000086176480580E002FFF733FFE8
:101210000446052C10D06F48006941F6EF71084074
:101220006C49086108E0052C06D06A48006941F65F
:10123000EF71084067490861204630BDF0B50446AB
:101240000D4604260027F002FFF715FF0646042E80
:1012500022D16048006940F001005E4908612580A4
:10126000F002FFF708FF0646042E0ED1A71C280C3B
:101270003880F002FFF7FFFE06465648006941F647
:10128000FE7108405349086106E05248006941F682
:10129000FE7108404F4908613046F0BD70B5044604
:1012A0000D460426F002FFF7E6FE0646042E11D195
:1012B0004848006940F00100464908612580F00275
:1012C000FFF7D9FE06464348006941F6FE71084023
:1012D00040490861304670BD70B505460E4604248D
:1012E000E002FFF7C8FE0446042C17D13A483949FA
:1012F00088603A4888600846006940F0100008613C
:101300002E80E002FFF7B7FE0446052C06D03148D8
:10131000006941F6EF7108402E490861204670BD12
:101320002DE9F04304464FF6FF763746B046B14606
:101330000425E443E6B2C4F30727C4F307484FEAA1
:101340001469E802FFF797FE0546042D40D12248B4
:1013500020498860214888600846006940F01000F4
:101360000861FF2E06D01E4808300680E802FFF70D
:1013700082FE0546042D08D1FF2F06D018480A30FA
:101380000780E802FFF777FE0546042D0AD1B8F181
:10139000FF0F07D012480C30A0F80080E802FFF7DA
:1013A0006AFE0546042D0AD1B9F1FF0F07D00C489B
:1013B0000E30A0F80090E802FFF75DFE0546052D0F
:1013C00006D00448006941F6EF7108400149086100
:1013D000284607E00020024023016745AB89EFCD96
:1013E00000F8FF1FBDE8F08330B5054604244FF434
:1013F0003020FFF740FE0446042C41D15E485F498F
:1014000088605F4888600846006940F020000861F5
:101410000846006940F0400008614FF43020FFF7B3
:101420002AFE0446042C22D15448006941F6DF719B
:101430000840524908610846006940F01000086100
:101440001DB100204F49088002E0A5204D490880C9
:101450004FF43020FFF70FFE0446052C10D047480C
:10146000006941F6EF7108404449086108E0052C25
:1014700006D04248006941F6DF7108403F490861E3
:10148000204630BDF0B505460E46174604243A48BE
:101490003A4988603A488860E002FFF7ECFD04466C
:1014A000042C19D13548006940F010003349086117
:1014B00047F0F800304328433249891C0880E00295
:1014C000FFF7D9FD0446052C06D02C48006941F6EB
:1014D000EF710840294908612046F0BD2748C069DE
:1014E000800870472548006A704700202349096832
:1014F00011F0200F01D0012000E00020704729B139
:101500001E4A126902431D4B1A6104E01B4A12690C
:1015100082431A4B1A61704701460020012908D105
:10152000164AD26912F0010F01D0012008E0002014
:1015300006E0124AD2680A4201D0012000E00020F1
:1015400070470E49C860704704200C49C96811F003
:10155000010F01D001200EE00849C96811F0040F05
:1015600001D0022007E00549C96811F0100F01D031
:10157000032000E00420704723016745002002405B
:10158000AB89EFCD00F8FF1F0948804709480047A5
:10159000FEE7FEE7FEE7FEE7FEE7FEE7FEE7FEE723
:1015A000FEE7FEE704480549054A064B7047000080
:1015B000FD020008ED000008580100205807002037
:1015C00058030020580300200724082500F05BF88A
:1015D000064800F0C2F808E02A46214604A000F0C0
:1015E00071F94FF47A7000F02EF8F5E790C301001E
:1015F00053544D3332202564202564200000000020
:10160000704700BFFEE700BFFEE700BFFEE700BF78
:10161000FEE7704770477047704700EBC001C90094
:101620004FF0E0225161002191610521116100BF5D
:101630004FF0E021096911F4803FF9D004214FF007
:10164000E0221161704700B5034603E04FF47A7061
:10165000FFF7E3FF1800A3F101018BB2F6D100BD43
:1016600010B5044603E04FF47A70FFF7ECFF20005A
:10167000A4F101018CB2F6D110BD10B54FF4A060F9
:10168000FEF7BCFE10BD10B5FFF7D2F84FF4803066
:10169000FFF7EEF8FFF72BF90446012C24D14FF4A5
:1016A000E0110004FFF748F90020FFF762F9A002FB
:1016B000FFF768F90020FFF76EF90220FFF78AFCB8
:1016C0001020FFF79BFC0120FFF742F900BF3920F3
:1016D000FFF7F1F80028FAD00220FFF73CF900BF2D
:1016E000FFF742F90828FBD110BD0000014600BFFA
:1016F000704700BF604A128812F0400FFAD0C2B2A1
:101700005D4B1B1D1A8070470FB410B5B4B0002498
:1017100037A80090C92101A8009B369A00F0B8F8BC
:101720000EE02046621CD4B201AA115C5248FFF7B9
:1017300089FB00BF40215048FFF7F2FB0028F9D099
:10174000C82C04DA01A800F0F5F9A042E9D800207D
:10175000009034B010BC5DF814FB10B586B00446A0
:10176000012144F20400FFF7C9F94FF40070ADF80D
:10177000140003208DF8160018208DF8170005A915
:101780003E48FEF709FF4FF48060ADF814000420D6
:101790008DF8170005A93948FEF7FEFE25208DF8C3
:1017A000000003208DF801008DF8020001208DF863
:1017B00003006846FEF727FE01940020ADF80800FC
:1017C000ADF80A00ADF80C00ADF810000C20ADF833
:1017D0000E0001A92848FFF73CFA012240F22551EA
:1017E0002548FFF7CEFA01212348FFF7BEFA06B0DD
:1017F00010BD10B540F225511F48FFF7A7FB002888
:1018000038D01D48FFF722FBC4B221461CA000F0CF
:1018100059F81C48008810F4004F2BD11948008853
:1018200010F4804F0CD00A2C03D0002015490880FA
:1018300020E01448008840F400401249088019E074
:101840000D2C06D10F48008840F480400D490880D7
:1018500010E00C480088C0F30D000B490C540948F7
:101860000088401C0749088008460088C72801DD19
:101870000020088010BD0000003801400008014031
:101880002563000028000020300000207047000081
:101890007CB51D4616460C00009001D02044401E29
:1018A000074B7B442A4669460190304600F017FA00
:1018B00005461CB10020694600F024FA28467CBD8C
:1018C000690400000FB4044910B503AA029800F09F
:1018D0003DFA10BC5DF814FB2C00002070B50C46DE
:1018E0000546012A05D02878800600D5EA6900233C
:1018F00002E0012305E05B1C934202D2E05C002879
:10190000F9D1A869E618C01AA861286A18442862A3
:10191000284600F032F904E0D5E9012114F8010B62
:101920009047B442F8D3284600F03EF970BD00005D
:101930002DE9F0410646002410687529314616A5A8
:1019400011D000F043F9002803DAC0F1000013A51C
:1019500007E031688A0701D511A502E0490704D5DF
:1019600010A5012401E000F03AF900210A2306F154
:10197000240707E0B0FBF3F203FB12003030785489
:101980001046491C0028F5D123462A463046BDE8BA
:10199000F04100F02DB90000000000002D00000013
:1019A0002B000000200000002DE9F05F894604466E
:1019B0004FF0000ADFF878B1FB44C0F820A02046C1
:1019C000E1688847002875D0252806D0D4E9012190
:1019D0009047206A401C2062F1E700265F462046BF
:1019E000E16888472028054608DB312D06D207EB41
:1019F000050010F8200C08B10643F0E7B00701D548
:101A000026F00406C4F81CA00027C4F818A02A2D4C
:101A100009D0284601F05BFA38B304EB8708303D63
:101A2000C8F8185019E059F8041B204604EB870247
:101A30009161E1688847012F054618D1E0690028C7
:101A400020DA26F020061DE0D8F8180000EB800010
:101A500005EB40003038C8F818002046E168884798
:101A6000054601F034FA0028EED1012F0AD02E2DC0
:101A700008D12046E16888477F1C0546022F46F0C2
:101A80002006C4DBA069002803DA404246F00106C4
:101A9000A061F00701D026F010066C2D0BD0682D48
:101AA00009D04C2D39D06A2D35D0742D35D07A2DF2
:101AB00033D016E038E0E1682F4620468847B84228
:101AC000054609D16C2F26D04FF48060E1680643AB
:101AD00020468847054604E06C2F1AD04FF48070EA
:101AE00006430DB3A5F14100192802D8203546F46C
:101AF00000664A462946204626604E46FEF730FBE1
:101B000080B101280BD0F61D26F0070000F108096E
:101B100055E74020E4E78020D8E70020D6E706F12B
:101B200004094CE7284651E7206ABDE8F09F000011
:101B30007C15000010B5431C02E010F8011B71B1C8
:101B40008107FAD14FF0013202C88C1A8C4314EA93
:101B5000C211F9D0C01A0A0603D0C01E10BDC01AA7
:101B600010BD0A0401D0801E10BD0902FCD0401E29
:101B700010BD704770477047704770B5044685695F
:101B80000068C10601D5302600E02026C00708D035
:101B900070BDD4E9012130469047206A00F1010070
:101BA00020626D1EF5D570BD70B50446856900785C
:101BB000C00708D170BDD4E9012120209047206AD8
:101BC00000F1010020626D1EF5D570BD09684A055F
:101BD00001D540B27047C905FCD500B2704709680D
:101BE0004A0501D5C0B27047C905FCD580B270471F
:101BF0002DE9F0470D4699469246044600F1240827
:101C00000168880604D5E06921F01001216000E038
:101C10000120A84202DDA0EB050700E00027A16932
:101C200007EB050202EB0900A1EB0000A0612078A0
:101C3000C00602D42046FFF7A0FF002608E0D4E942
:101C400001211AF806009047206A401C761C206289
:101C50004E45F4DB2078C0060AD52046FFF78DFFFD
:101C600006E0D4E9012130209047206A401C206220
:101C7000381EA7F10107F4DC07E0D4E9012118F8C8
:101C800005009047206A401C2062281EA5F101052E
:101C9000F3DC2046FFF788FF2078000602D50220FB
:101CA000BDE8F0870120FBE711680268006A530570
:101CB00001D508700BE0D30501D5088007E01306B5
:101CC00003D5C217C1E9000201E0520608600120F5
:101CD0007047000001694A1C02610878704700B52E
:101CE0008FB0CDE901310021059105497944CDE955
:101CF000031011466846FFF757FE0FB000BD000005
:101D0000E5FFFFFF0A6802F8010B0A607047D1E99E
:101D100000239A4202D2531C0B601070704710B51A
:101D2000436913B1AFF3008001E0FFF7D7FD012055
:101D300010BD127800F124010A7000224A700122BD
:101D4000EDE711684FF0FF32E9E70000074B70B58F
:101D50000D467B44FFF7C3FF0446284600F097FB7F
:101D600010B14FF0FF3070BD204670BD9DF9FFFFF0
:101D70002DE9FF5F15468A460446DFF8AC80F8443B
:101D80000027D8E900103E46CDE9001011E03AF8EE
:101D900016106A4602A800F07EFB411C07D021788D
:101DA000890603D5E269391891420ED8074406F135
:101DB00001062078800602D5E069B84205DDAE4212
:101DC000E5DB3AF816000028E1D1A069C01BA0614C
:101DD0002046FFF7D2FED8E90010CDE90010002020
:101DE00016E03AF818106A4602A800F054FB814643
:101DF000401C0BD000250DF1080B05E0D4E90121B2
:101E00001BF8050090476D1C4D45F7D308F1010004
:101E1000B0428046E5DB206A384420622046FFF766
:101E2000C3FEBDE8FF9F0000CA1100002DE9F0418C
:101E30008046D21D22F007020025D2E90002F529D2
:101E400014A612D0002A06DA0023D0EB030063EBBD
:101E5000020211A608E0D8F800108B0701D50FA6E2
:101E600002E0490701D50EA601251146002408F11C
:101E7000240704E000F0A0F830323A55641C50EA20
:101E80000102F7D12B46324621464046BDE8F041DB
:101E9000FFF7AEBE000000002D0000002B00000088
:101EA0002000000030B4002100F124040CE002F016
:101EB000070505F130054FEAD20242EA4372655444
:101EC00001F101014FEAD30352EA0305EFD104689F
:101ED000002310A2250708D504F020040C4304D0E9
:101EE000C46901230CA2641EC46130BCFFF780BE2C
:101EF00010B5044621461068FFF771FE02462046E1
:101F0000BDE810400023CDE7D21D22F00701D1E942
:101F10000023C7E70000000030000000F0B40D46C9
:101F20000188090502D5234C7C4402E0214C7C4405
:101F30000E34002100F124060BE002F00F074FEAF7
:101F40001212E75D42EA03724FEA1313775401F16C
:101F5000010152EA0307F0D102780023120704D5E9
:101F6000702D06D009B1113402232246F0BCFFF7D0
:101F70003FBE10340123F8E770B504460D462146F4
:101F80001068FFF72CFE024629462046BDE8704047
:101F90000023C3E7D21D22F00703D3E90023BDE7E6
:101FA0000368126843F0200303600823C361002321
:101FB000B4E700002810000030B5B0F10A024FEA83
:101FC000900E71F100034EEA817EB0EB0E0061EBE2
:101FD00091014FEA101E4EEA017E10EB0E0041EB1C
:101FE00011114FEA102E4EEA016E10EB0E0041EB7C
:101FF00011214FEA104E4EEA014E10EB0E0041EB5C
:102000001141401841F100014FEAD00040EA41700F
:102010004FEAD10110EB80054FEA810444EA907445
:1020200044EB01046D1944EB0404521BA3414FF02F
:10203000000348BF0A3200D530BD401C41F1000109
:1020400030BD70472DE9FF4F0C461E464FF0FF375D
:102050008BB0D2E90001DDF860800A908A46C1F3B6
:102060000A5505B93D46002108464FF00000BAF177
:10207000000F00F4400005DA00EB80004FF440014F
:1020800001EA50004FEA9059B9F1010F00DDB9465D
:102090000A9850EA4A000ED044F61050A5F2FF35D7
:1020A00045432F14B8F1000F1ED07542291E1EDDC6
:1020B000C9F100021CE0B8F1010F4FF0000001D09F
:1020C000302103E0F24305E02154401CB042FBDB29
:1020D00030460022002121540B99C1F80880C1E943
:1020E00000200FB0BDE8F08FBD1B6D1CDEE74A4637
:1020F00000DA694206A800F05FFA06AB07CB03AB33
:1021000007C350460A9900F013FB8DE80700A0F5BD
:1021100000501F3800900398002D09DD42F21F0186
:102120004A46084403A90390684600F072FD08E09F
:10213000A0F500504A461F3803A90390684600F0F6
:102140007CFD8DE807000004000C03D04FF0FF3049
:10215000410800E01046B8F1000F03D000220092C1
:1021600015461FE0751E06D4FFF726FF02F1300268
:1021700062556D1EF8D5B3460122084302D00022F5
:102180007F1C04E02078302801D100227F1E002A25
:10219000099787D01DE0112D07DAFFF70DFF3032C8
:1021A00062556D1C50EA0102F5D108430FD10021A0
:1021B000681E05E0235C625C6354491C2254401E87
:1021C0008142F7DBAB46A81B401E099001E0009856
:1021D00048B1002004F80B000B98099AC0F8088059
:1021E000C0E9002B7DE711264FF000085AE72DE9E2
:1021F000F04F88460446D21D22F0070191B0D1E984
:102200000001CDE90A0100F04EFE02460B98C00F16
:1022100001D02D2007E02068810701D52B2002E0A6
:10222000202101EAC000032A099001D0072A05DB1A
:1022300003464146204600F07FF90FE120788006F2
:1022400001D5E06900E00620B8F1650F814606D0AF
:10225000B8F1660F18D0B8F1670F72D132E00020E4
:10226000B9F1110F009001DB112301E009F1010325
:102270000AAA01A90CA8FFF7E5FEDDE90C7000260B
:1022800009F10105834648E001204B4600904FF0DC
:1022900000470AAA01A90CA8FFF7D4FEDDE90DB09A
:1022A0000C995D46002618B909F1010001EB000503
:1022B000B9EB050003D4C0F1FF3609F10105A5EB28
:1022C00009002BE0B9F1010F01DA4FF001090020FC
:1022D000B9F1110F0090484601DD112300E00346DB
:1022E0000AAA01A90CA8FFF7ADFEDDE90C704D4666
:1022F00000268346207800070AD4AB4500DA5D4605
:1023000001A8012D04DD411911F8011C302907D065
:102310004F4502DA17F1040F04DA0120824610E07B
:102320006D1EEEE7002F02DCED1B3E4403E0781C3F
:10233000A84200DD0546A7EB060000F1010A4FF0B8
:1023400000472078000703D4AA4501DB4FF0FF3A8D
:102350000021B7F1004F0DF143088DF8431023D051
:1023600002202B23002F01DA7F422D234FF00A0C8D
:10237000011EA0F1010000DC4FB197FBFCF10CFB4A
:1023800011720F4602F1300208F8012DF0E7A8F1B2
:10239000010003702188090501D5452100E0652170
:1023A000A0F1010800F8011C09980FA9A1EB08078A
:1023B00007F1070700B1012000EB050101EBEA700E
:1023C000A1693844A1EB0000A0F10100A0612078D0
:1023D000C00602D42046FFF7D0FB099830B1D4E9FB
:1023E00001219047206A00F1010020622078C00698
:1023F00020D52046FFF7C1FB1CE0002E04DBB345CF
:1024000002DD01A8805D00E03020D4E90121904781
:10241000206A761C401CBAF1010A20620AD100F041
:1024200087F8C0680168405CD4E901219047206AC0
:10243000401C2062281EA5F10105DEDC07E0D4E97E
:10244000012118F8010B9047206A401C2062381EB9
:10245000A7F10107F3DC2046FFF7A6FB022011B02D
:1024600040E610B5436913B1AFF3008001E0FFF718
:102470007FFC012010BD128800F12401828400221B
:10248000C2840122EDE711684FF0FF32E9E7007BDB
:1024900000F08000704770B50C461646054600F007
:1024A0003FF8036893F80101012806D0FF2C0FD8EC
:1024B000185D68B101202C7070BDD3F80701324659
:1024C000214603442846BDE8704003F2071318472D
:1024D0004FF0FF3070BD754600F0E6F8AE460500DF
:1024E0006946534620F00700854618B020B5FFF72F
:1024F00059F8BDE820404FF000064FF000074FF0BC
:1025000000084FF0000B21F00701AC46ACE8C00911
:10251000ACE8C009ACE8C009ACE8C0098D4670471A
:1025200010B500F005F8001D10BD00BFDD0900006A
:1025300000487047180100202DE9F0411F4604466D
:1025400003260168072A01F4006004DB08B116A520
:1025500005E016A503E008B115A500E015A521F0DA
:1025600010002060A069C01EA0610FB1401EA061D4
:102570002046FFF702FB4FB1D4E9012138469047CE
:10258000206A401C2062C01C206206E0206AFAE734
:10259000D4E9012115F8010B9047761EF8D22046A8
:1025A000FFF702FBBDE8F0814E414E006E616E0008
:1025B000494E4600696E66002DE9F0478146164691
:1025C0008AB035487844D0E9002380680092CDE98C
:1025D0000130314878440C38D0E902230069039275
:1025E0004FF03702CDE9043041F69B30014491FBB6
:1025F000F2F0A0F1800502FB10141B3C02D56442EE
:10260000012000E00020DFF890A080460027FA4477
:10261000AAF1C60A0DE0E00709D03246684607EB8A
:1026200047010AEB810100F008FB8DE80700641008
:102630007F1C002CEFD1184F7F44B43F17E0E80710
:1026400013D007EB04100DF1180A90E80E00AAE869
:102650000E00C068F04201D198190890324606A9D0
:1026600003A800F0EAFA03AB07C36D10641C002D49
:10267000E5D132466946B8F1000F03A802D000F058
:10268000C8FA01E000F0D9FAC9E90001C9F8082048
:102690000AB0BDE8F0870000300A00000446AFF33E
:1026A00000802046FDF7BFFD00487047F80000207D
:1026B0004FF0013C50F8042B51F8043B9A4221D1D1
:1026C000A2EB0C03934313EACC1317D150F8042B5D
:1026D00051F8043B9A4215D1A2EB0C03934313EA41
:1026E000CC130BD150F8042B51F8043B9A4209D17A
:1026F000A2EB0C03934313EACC13DBD04FF00000A2
:10270000704700BFD01A01BAB1FA81F101F0180187
:1027100022FA01F0CB40C1F12001DBB2C0B2C01AF5
:102720002CFA01F3D11A914311EAC311E6D1704793
:102730005FEA400C08BF91F0000F4FEA8C234FEA8C
:10274000C12243EA51514FEA1C5018BF00F5F04036
:102750004FEA300018BF41F000415FEA6C5C00F0C6
:102760002980BCF1FF3F08BF40F080407047130C48
:1027700006BF12044FF0100C4FF0000C130E04BFF4
:1027800012020CF1080C130F04BF12010CF1040C1F
:10279000930F04BF92000CF1020CD30F04BF520040
:1027A0000CF1010C11464FF00002A0F11F00A0EB4C
:1027B0000C00704711F0004F08BF704731F0004126
:1027C0003FF4D5AF0B0C06BF09044FF0100C4FF0CF
:1027D000000C0B0E04BF09020CF1080C0B0F04BF18
:1027E00009010CF1040C8B0F04BF89000CF1020CE1
:1027F000CB0F04BF49000CF1010CCCF12003A0EB7E
:102800000C0022FA03F302FA0CF241EA030100F190
:102810000100704720F07F4C80EA030023F07F47DF
:10282000ACEB070303F57C5300F0004003F1FF031A
:102830002DE980494FEA154B09B44FEA144325EAC4
:102840000B4E24EA03480FF2042606EB132749082F
:102850003E785FEA320203FB0667C7F5000707FB15
:1028600006F64FEA54374FEAD64606F1020607FB52
:10287000066CCCF1005C4FEA1C472CEA074C07FBC6
:1028800006F40CFB06F504EB15464FEA961634BF2A
:1028900000204FF000404FEAD13706FB07FC4FEA1B
:1028A0001C4C0CFB0BF7D21B03FB0CF761EB070175
:1028B0000CFB0EF7B0EB074072EB17420CFB08F76E
:1028C00034BFA2EB0742B2EB074261EB17414FEA7C
:1028D0000C444FEA910706FB07FC4FEA1C4C0CFB2B
:1028E0000BF7B0EBC74072EB573203FB0CF734BF6A
:1028F000A2EBC742B2EBC74261EB57310CFB0EF7BC
:10290000B0EBC70072EB57720CFB08F734BFA2EBB9
:10291000C702B2EBC70261EB5771039F4FEA8161B7
:1029200041EA921104EBCC044FEAD1374FEA8262BC
:1029300006FB07FC42EA90124FEA80604FEA1C4C0B
:102940000CFB0BF7D21B03FB0CF761EB07010CFB35
:102950000EF7B0EB074072EB17420CFB08F734BFE1
:10296000A2EB0742B2EB074261EB17414FEA8C55ED
:102970004FEA910704EB9C2406FB07FC4FEA1C4C32
:102980000CFB0BF7B0EBC74072EB573203FB0CF7B5
:1029900034BFA2EBC742B2EBC74261EB57310CFB2D
:1029A0000EF7B0EBC70072EB57720CFB08F734BFA1
:1029B000A2EBC702B2EBC70261EB577115EB4C25D6
:1029C0004FEA816141EA92114FEA82624FEAD137C0
:1029D00042EA901206FB07FC44F100044FEA8060D3
:1029E0004FEA1C4C0CFB0BF7D21B03FB0CF761EB03
:1029F00007010CFB0EF7B0EB074072EB17420CFB24
:102A000008F734BFA2EB0742B2EB074261EB174174
:102A100015EB1C154FEA813141EA92414FEA8232AF
:102A200042EA90424FEA80304FEA0C7644F10004CB
:102A300048EA03434EEA0B484FF0000EB2EB080C95
:102A400071EB030724BF624639464EEB0E0E4FF082
:102A5000000B0018524149414BEB0B0BB2EB080C39
:102A600071EB03077BF1000B24BF624639464EEB46
:102A70000E0E4FF0000B0018524149414BEB0B0B6F
:102A8000B2EB080C71EB03077BF1000B24BF62462D
:102A900039464EEB0E0E51EA020718BF46F001060A
:102AA00016EB0E7655F1000254F1000103D5BDE896
:102AB0008901BDE80088BDE88901BDE80048B61974
:102AC000524141EB0101A3F10103704780807F7EF9
:102AD0007D7C7B7A79787776767574737271717094
:102AE0006F6E6E6D6C6C6B6A6A6968686766666546
:102AF0006464636362616160605F5F5E5E5D5D5CD4
:102B00005C5B5B5A5A595958585757565655555544
:102B10005454535352525251515050504F4F4F4EA4
:102B20004E4D4D4D4C4C4C4B4B4B4A4A4A494949F2
:102B30004848484747474746464645454544444434
:102B4000444343434342424242414141002B26D445
:102B5000770021D01CB54FEA370703B44FF01000BF
:102B60004FF010014FF000000FBCBDE810400BF11A
:102B7000010BBBF1010F08BF5FEA170722BF12F17B
:102B8000010211F101014FF0004143F1000300F097
:102B9000004043EA00007047F9D35708DAE746EAF5
:102BA000064613F1400F4FEA16461FDD13F1200FC2
:102BB000DFBF16430A46002120335B42C8D0C3F171
:102BC000200746EA064602FA07F74FEA164646EAA3
:102BD0000706C3F1200722FA03F201FA07F721FAE8
:102BE00003F14FF0000342EA0702B1E746EA0206AA
:102BF00046EA06464FEA164646EA0106BCBF46EAE2
:102C00000646360C4FF000034FF000024FF0000173
:102C10009EE72DE9C048934630B491E8380007C8D4
:102C200031EA400C48BF34EA430C03D5FFF7F2FD0C
:102C3000FFF78CFFF0BCBDE800882DE9C048934643
:102C400030B491E8380007C810F0804F08BF13F087
:102C5000804F03D100F005F8FFF778FFF0BCBDE826
:102C6000008820F07F4780EA030023F07F4C07EBC9
:102C70000C03A3F57C5300F00040A3F1FE0392F097
:102C8000000F00F0B38095F0000F00F077802DE981
:102C900001494FEA11404FEA144621EA004800FB7F
:102CA00006FC24EA064708FB06F607FB08F800FBCB
:102CB00007F718EB06484CEB164C4FEA124B18EB93
:102CC00007484FEA15464CEB174022EA0B4E0BFB28
:102CD00006FC25EA06470EFB06F607FB0EFE0BFB7D
:102CE00007F71EEB064E4CEB164C4FF000061EEBA2
:102CF000074E4CEB174B18EB0B0840F1000018EB9C
:102D00000E0B58EB000840F100008F1A4FF0000145
:102D10003CBFC943661B14BFB5EB040C00213CBF8C
:102D2000C943F61B4FEA17444EEA8E0E27EA0445C4
:102D30004FEA1C4704FB07622CEA074C05FB07F728
:102D40000CFB05F604FB0CFC16EB074642EB1742A6
:102D500016EB0C4642EB1C421BEB060658EB02023C
:102D6000414146EA9E0601D5BDE80189B6195241A6
:102D700041EB0101A3F10103BDE801894FEA1445CC
:102D80004FEA114724EA054621EA074C05FB07F400
:102D900006FB07F70CFB06F105FB0CFC11EB0741EA
:102DA00044EB17444FEA124711EB0C4144EB1C442F
:102DB00022EA074C05FB07F206FB07F70CFB06F6B9
:102DC00005FB0CFC16EB074642EB174216EB0C46D4
:102DD00042EB1C456A1854F1000148BF7047B61910
:102DE000524141EB0101A3F10103704795F0000F3F
:102DF00037D04FEA11424FEA144721EA024624EA4B
:102E0000074C02FB07F106FB07F70CFB06F402FB7D
:102E10000CFC14EB074441EB17414FEA154714EB48
:102E20000C4441EB1C4125EA074C02FB07F506FB6D
:102E300007F70CFB06F602FB0CFC16EB074645EB0E
:102E4000174516EB0C4645EB1C42121951F10001D7
:102E500048BF7047B619524141EB0101A3F101038C
:102E600070474FEA14454FEA114724EA054621EA24
:102E7000074C05FB07F106FB07F70CFB06F24FF0CA
:102E8000000605FB0CFC12EB074241EB174112EB6D
:102E90000C4251EB1C4148BF7047921841EB0101B5
:102EA000A3F101037047490050EAC12018BF042074
:102EB0004A0D18BF40F0010040F2FF72B2EB515FC3
:102EC00008BF40F00200012808BF052070473038D5
:102ED0000A2801D2012070470020704710B5002950
:102EE0000AD00878002807D005487844FFF7E0FBAF
:102EF000002801D0002010BD0248784410BD000019
:102F0000460100003E01000010B500290AD00878F3
:102F1000002807D005487844FFF7CAFB002801D0F5
:102F2000002010BD0248784410BD000036010000AA
:102F30002E010000FFF75BB904000008000000004C
:102F4000000000020001000010000000000000006E
:102F500000000000303132333435363738394142E1
:102F600043444546403058003031323334353637EB
:102F70003839616263646566403078000240000061
:102F8000000000A00000000005400000000000C894
:102F9000000000000C4000000000409C0000000009
:102FA000194000000020BCBE0000000034400000BA
:102FB000BFC91B8E00000004B5400000504BCFD0AD
:102FC0006607E2CF010000006C4100003E8251AA7A
:102FD000DFEEA73401000000D9420000DCB5A0E21A
:102FE0003A301F97FFFFFFFFB4450000FD25A0C842
:102FF000E9A3C14FFFFFFFFFFF3F0000000000807B
:1030000000000000FF3F0000000000800000000002
:103010005C3100080000002030000000280100089A
:103020008C3100083000002028070000440100080F
:103030001C00000043000000F8FFFFFF0C00000030
:103040000E0000000F0000002E0000001001000024
:1030500043000000F8FFFFFF004040404040404078
:10306000404041414141414040404040404040405B
:1030700040404040404040404005020202020202FF
:10308000020202020202020202202020202020204E
:103090002020200202020202020290909090909062
:1030A0001010101010101010101010101010101020
:1030B0001010101002020202020288888888888894
:1030C0000808080808080808080808080808080880
:1030D0000808080802020202400000000000000088
:1030E00000000000000000000000000000000000E0
:1030F00000000000000000000000000000000000D0
:1031000000000000000000000000000000000000BF
:1031100000000000000000000000000000000000AF
:10312000000000000000000000000000000000009F
:10313000000000000000000000000000000000008F
:10314000000000000000000000000000000000007F
:1031500000000000000000000000000000A24A047F
:103160000000000000000000010203040607080937
:10317000000000000102030401020304060708091D
:0C3180000204060800000000000000002F
:04000005080000ED02
:00000001FF
